:020000040000FA
:100000000C945D030C9485030C9485030C94850378
:100010000C9485030C9485030C9485030C94850340
:100020000C9485030C9485030C9485030C94850330
:100030000C9485030C9485030C9485030C94850320
:100040000C94C7050C9485030C9495050C946F05CE
:100050000C9485030C9485030C9485030C94850300
:100060000C9485030C948503000000080002010035
:100070000003040700000000000000000000000072
:100080000000000018181818180018006C6C6C009C
:100090000000000036367F367F3636000C3F683E63
:1000A0000B7E180060660C1830660600386C6C38E1
:1000B0006D663B000C183000000000000C1830305A
:1000C00030180C0030180C0C0C18300000187E3C56
:1000D0007E1800000018187E1818000000000000AC
:1000E000001818300000007E000000000000000032
:1000F0000018180000060C18306000003C666E7E88
:1001000076663C001838181818187E003C66060CF5
:1001100018307E003C66061C06663C000C1C3C6CDD
:100120007E0C0C007E607C0606663C001C30607C09
:1001300066663C007E060C18303030003C66663C3B
:1001400066663C003C66663E060C380000001818E7
:100150000018180000001818001818300C1830602B
:1001600030180C0000007E007E00000030180C06E5
:100170000C1830003C660C18180018003C666E6ABB
:100180006E603C003C66667E666666007C66667CE9
:1001900066667C003C66606060663C00786C666603
:1001A000666C78007E60607C60607E007E60607C53
:1001B000606060003C66606E66663C006666667EF7
:1001C000666666007E18181818187E003E0C0C0C27
:1001D0000C6C3800666C7870786C660060606060EB
:1001E00060607E0063777F6B6B6363006666767E1C
:1001F0006E6666003C66666666663C007C66667C8B
:10020000606060003C6666666A6C36007C66667C90
:100210006C6666003C66603C06663C007E181818FA
:10022000181818006666666666663C00666666664E
:10023000663C180063636B6B7F77630066663C18EF
:100240003C6666006666663C181818007E060C1848
:1002500030607E007C60606060607C000060301810
:100260000C0600003E06060606063E00183C6642E6
:100270000000000000000000000000FF1C36307C81
:1002800030307E0000003C063E663E0060607C66CA
:1002900066667C0000003C6660663C0006063E66C2
:1002A00066663E0000003C667E603C001C30307C90
:1002B0003030300000003E66663E063C60607C6682
:1002C000666666001800381818183C0018003818C0
:1002D000181818706060666C786C6600381818180A
:1002E00018183C000000367F6B6B630000007C66D2
:1002F0006666660000003C6666663C0000007C6640
:10030000667C606000003E66663E060700006C7614
:100310006060600000003E603C067C0030307C3055
:1003200030301C000000666666663E0000006666AF
:10033000663C18000000636B6B7F36000000663C73
:10034000183C660000006666663E063C00007E0CB7
:1003500018307E000C18187018180C0018181800A7
:10036000181818003018180E18183000316B460095
:1003700000000000FFFFFFFFFFFFFFFFFF7FFF7F89
:10038000FF7FDE7BBD779C739C737B6F7B6F5A6BAB
:100390005A6B5A6B39671863F75EF75EF75EF75E64
:1003A000B556B5569452734E734E524A524A314620
:1003B0003146EF3DCE39CE39CE39AD35AD35AD35DF
:1003C0008C318C316B2D6B2D4A29292500000000C2
:1003D000000000000000000000000000000000001D
:1003E000000000000000000000000000000000000D
:1003F00000000000000000000000000000000000FD
:1004000000000000000000000000000000000000EC
:1004100000000000000000000000000000000000DC
:1004200000000000000000000000000000000000CC
:1004300000000000000000000000000000000000BC
:1004400000000000000000000000000000000000AC
:10045000000000000000000000000000000000009C
:10046000000000000000000000000000000000008C
:10047000000000000000000000000000000000007C
:10048000000000000000000000000000000000006C
:10049000000000000000000000000000000000005C
:1004A000000000000000000000000000000000004C
:1004B000000000000000000000000000000000003C
:1004C000000000000000000000000000000000002C
:1004D000000000000000000000000000000000001C
:1004E000000000000000000000000000000000000C
:1004F00000000000000000000000000000000000FC
:1005000000000000000000000000000000000000EB
:1005100000000000000000000000000000000000DB
:1005200000000000000000000000000000000000CB
:1005300000000000000000000000000000000000BB
:1005400000000000000000000000000000000000AB
:10055000000000000000000000000000000000009B
:10056000000000000000000000000000000000008B
:10057000000000000000000000000080FFFFFFFFFF
:10058000FFFFFFFFFFFFFFFFFFFFFFFFFFFFFFFF7B
:1005900000000000030B1220FFFFFFFFFFFFFF0022
:1005A0000000000001060F1723FFFFFFFFFF000000
:1005B0000000000002070E161E27FFFFFF000000CC
:1005C00000000000030911171F2727FFFF0000008C
:1005D00000000001050C1219222727FFFF00000070
:1005E000000000040A10151B252727FFFF0000004C
:1005F000000104080D141A21272727FFFF03010219
:1006000003050A0D13181D26272727FFFF0B0607D2
:10061000090C1014181C2427272727FFFF120F0E80
:100620001112151A1D242727272727FFFF20171629
:1006300017191B2126272727272727FFFFFF231E00
:100640001F222527272727272727FFFFFFFFFF2711
:10065000272727272727272727FFFFFFFFFFFFFF42
:100660002727272727272727FFFFFFFFFFFFFFFF5A
:10067000FFFFFFFFFFFFFFFFFFFFFFFF0000000086
:10068000250028002B0000000000240027002A007D
:100690000404040404040404020202020202030328
:1006A0000303030301020408102040800102040830
:1006B0001020010204081020110611241FBECFEFE4
:1006C000D8E0DEBFCDBF11E0A0E0B1E0EAE7F5E1A0
:1006D00002C005900D92A435B107D9F722E0A4E538
:1006E000B1E001C01D92A730B207E1F713E0CDE5FC
:1006F000D3E004C02197FE010E94B50ACC35D10792
:10070000C9F70E943E060C94BB0A0C94000090E0CE
:10071000FC01EC55F94F24918057994FFC018491CD
:10072000882399F090E0880F991FFC01EA57F94F50
:10073000A591B491FC01E458F94F859194918FB73C
:10074000F894EC91E22BEC938FBF0895AF92BF9297
:10075000CF92DF92EF92FF920F931F93CF93DF938D
:100760006C017B018B01040F151FEB015E01AE18BC
:10077000BF08C017D10759F06991D601ED91FC91DE
:100780000190F081E02DC6010995892B79F7C5010B
:10079000DF91CF911F910F91FF90EF90DF90CF905D
:1007A000BF90AF900895FC01538D448D252F30E00C
:1007B000842F90E0821B930B541710F0CF9608956E
:1007C00001970895FC01918D828D981761F0A28D9B
:1007D000AE0FBF2FB11D5D968C91928D9F5F9F7361
:1007E000928F90E008958FEF9FEF0895FC01918D17
:1007F000828D981731F0828DE80FF11D858D90E084
:1008000008958FEF9FEF0895FC01918D228D892F20
:1008100090E0805C9F4F821B91098F739927089508
:1008200082E691E00E94040421E0892B09F420E093
:10083000822F089580E090E0892B29F00E94100417
:1008400081110C9400000895FC01A48DA80FB92F0C
:10085000B11DA35ABF4F2C91848D90E001968F73E8
:100860009927848FA689B7892C93A089B1898C9107
:10087000837080648C93938D848D981306C0028856
:10088000F389E02D80818F7D80830895EF92FF9220
:100890000F931F93CF93DF93EC0181E0888F9B8DA3
:1008A0008C8D98131AC0E889F989808185FF15C05D
:1008B0009FB7F894EE89FF896083E889F989808180
:1008C0008370806480839FBF81E090E0DF91CF914F
:1008D0001F910F91FF90EF900895F62E0B8D10E071
:1008E0000F5F1F4F0F731127E02E8C8D8E110CC0E0
:1008F0000FB607FCFACFE889F989808185FFF5CF2B
:10090000CE010E942404F1CFEB8DEC0FFD2FF11DE1
:10091000E35AFF4FF0829FB7F8940B8FEA89FB8967
:1009200080818062CFCFCF93DF93EC01888D8823C5
:10093000B9F0AA89BB89E889F9898C9185FD03C042
:10094000808186FD0DC00FB607FCF7CF8C9185FF27
:10095000F2CF808185FFEDCFCE010E942404E9CF44
:10096000DF91CF91089590E0FC01E859FF4F249169
:10097000FC01EC55F94F3491FC01E057F94FE4913B
:10098000EE23C9F0222339F0233001F1A8F42130FD
:1009900019F1223029F1F0E0EE0FFF1FE458F94F72
:1009A000A591B4918FB7F894EC91611126C0309560
:1009B0003E233C938FBF08952730A9F02830C9F01B
:1009C000243049F7809180008F7D03C080918000A2
:1009D0008F7780938000DFCF84B58F7784BDDBCFA6
:1009E00084B58F7DFBCF8091B0008F778093B0006E
:1009F000D2CF8091B0008F7DF9CF3E2BDACF3FB7B9
:100A0000F8948091590190915A01A0915B01B091A5
:100A10005C0126B5A89B05C02F3F19F00196A11DCA
:100A2000B11D3FBFBA2FA92F982F8827BC01CD0138
:100A3000620F711D811D911D42E0660F771F881F97
:100A4000991F4A95D1F7089561E080915F010C9458
:100A5000B3048EBD00000DB407FEFDCF8EB5089522
:100A6000CF93DF93EC0160E080915F010E94B304BB
:100A70008D2F0E9429058C2FDF91CF910C94290591
:100A800090680C9430051F93CF93DF93162FEA01E3
:100A90000E944005219720F0812F0E942905FACF5E
:100AA000DF91CF911F910C942405CF93DF93D62F24
:100AB000C72F0E9440058D2F0E9429058C2F0E9470
:100AC0002905DF91CF910C942405CF93C62F0E9466
:100AD00040058C2F0E942905CF910C9424051F926C
:100AE0000F920FB60F9211242F933F934F935F9362
:100AF0006F937F938F939F93AF93BF93EF93FF93E6
:100B000082E691E00E942404FF91EF91BF91AF91A2
:100B10009F918F917F916F915F914F913F912F9115
:100B20000F900FBE0F901F9018951F920F920FB647
:100B30000F9211242F938F939F93EF93FF93E09144
:100B40007201F09173018081E0917801F091790157
:100B500082FD1BC0908180917B018F5F8F732091FC
:100B60007C01821741F0E0917B01F0E0EE59FE4FED
:100B7000958F80937B01FF91EF919F918F912F91A2
:100B80000F900FBE0F901F9018958081F4CF1F9289
:100B90000F920FB60F9211242F933F938F939F9331
:100BA000AF93BF938091550190915601A091570149
:100BB000B09158013091540123E0230F2D3758F59F
:100BC0000196A11DB11D209354018093550190936E
:100BD0005601A0935701B09358018091590190910B
:100BE0005A01A0915B01B0915C010196A11DB11D5C
:100BF0008093590190935A01A0935B01B0935C01DB
:100C0000BF91AF919F918F913F912F910F900FBE08
:100C10000F901F90189526E8230F0296A11DB11D75
:100C2000D2CFE2E6F1E01382128288EE93E0A0E0F8
:100C3000B0E084839583A683B78388E191E09183B4
:100C4000808385EC90E09587848784EC90E097879B
:100C5000868780EC90E0918B808B81EC90E0938B89
:100C6000828B82EC90E0958B848B86EC90E0978B66
:100C7000868B118E128E138E148E0895CF93DF9370
:100C8000CDB7DEB72A970FB6F894DEBF0FBECDBF43
:100C9000789484B5826084BD84B5816084BD85B557
:100CA000826085BD85B5816085BD80916E00816063
:100CB00080936E0010928100809181008260809309
:100CC000810080918100816080938100809180000B
:100CD0008160809380008091B10084608093B10036
:100CE0008091B00081608093B00080917A00846030
:100CF00080937A0080917A00826080937A0080915C
:100D00007A00816080937A0080917A008068809375
:100D10007A001092C1000E94FF044B015C013AEF7F
:100D2000C32ED12CE12CF12C0E94FF046819790903
:100D30008A099B09683E734081059105A8F321E06B
:100D4000C21AD108E108F10888EE880E83E0981EE7
:100D5000A11CB11CC114D104E104F10429F789E0FC
:100D600080935F010E948703BFB7B983F894809195
:100D70005D01811124C0EAE9F6E08491EEEAF6E033
:100D80009491E82FF0E0EE0FFF1FEA57F94FA5917D
:100D9000B491EC91E92321F461E08AE00E94B3046C
:100DA0008AE00E9487038CB580618CBD8CB580641D
:100DB0008CBD8DE00E9487038BE00E9487038091A9
:100DC0005D018F5F80935D01E981EFBF8CB58C7F02
:100DD0008CBD8DB581608DBD8CB58F7D8CBD8CB586
:100DE000837F8CBD81E08DBD61E080915F010E94B9
:100DF000B30461E089E098E20E94650580E090EB31
:100E00000E94300580E092E09A83898380E90E9405
:100E1000290581E00E94290580E90E94290581E0D9
:100E20000E94290580915E018F5F80935E01A981F8
:100E3000BA811197BA83A983AB2B41F70E9424058D
:100E400040E058E260E090E080E00E94430540E02E
:100E500058E060E080E098E30E94430540E050E401
:100E600060E080E090E40E94430540E051E060E0F3
:100E700080E09AE20E94430540E850E060E080E4B0
:100E800098E20E94430570E060E084E098E20E94EE
:100E9000550570E060E086E098E20E94550560E04C
:100EA00088E098E20E94650560E08AE098E20E948E
:100EB000650560E08BE098E20E94650560E08CE0EB
:100EC00098E20E94650570E060E08EE098E20E9482
:100ED000550570E060E080E198E20E94550570E001
:100EE00060E082E198E20E94550570E060E08EE1EA
:100EF00098E20E94550560E484E198E20E9465054D
:100F000080E090EC0E943005ECE7F5E0FA83E9839D
:100F1000E981FA8184910E94290589819A8101964B
:100F20009A8389838C57964099F70E94240580E024
:100F300098EB0E943005ECE7F3E0FA83E983E9815E
:100F4000FA8184910E94290589819A8101969A8368
:100F500089838C57954099F70E9424050CE710E08F
:100F6000C12C92E1D92EF8018491A82FAF70B0E086
:100F7000AC5FBE4FFC90E82FF0E084E0F595E7957C
:100F80008A95E1F7EC5FFE4F6081C6010E9465051E
:100F90006F2DC60101960E9465050F5F1F4FF2E09D
:100FA000CF0ED11CC11428E1D206E9F680E091E20F
:100FB0009A83898360E070E889819A810E9455054F
:100FC0006FEF7FE789819A8106960E945505A98176
:100FD000BA811896BA83A983A115B44259F740E0A3
:100FE00050E160E290E080E00E9443058EE490E0F2
:100FF0000E94400586E291E09A838983A981BA81A3
:101000008D91BA83A983882319F00E942905F6CF10
:101010000E94240580E199E00E944005EFE3F1E0A1
:10102000FA83E983A981BA818D91BA83A983882340
:1010300019F00E942905F6CF0E942405E0E0F0E3B4
:10104000FA83E98389819A810E94400580E90E94A0
:10105000290581E00E94290580E90E94290581E097
:101060000E9429050E94240589819A8104969A8309
:1010700089838115944331F700E010E0E0E0F0E36C
:10108000FA87E9878091000190910101A091020106
:10109000B091030189839A83AB83BC83C090030220
:1010A000D0900402E0900502F09006028090FF01CB
:1010B00090900002A0900102B0900202A701960158
:1010C000BC01CD010E94540920E030E040E251E42F
:1010D0000E94480A2AE037ED43EA5BE30E94480A8F
:1010E000A70196010E9455096D837E838F8398879F
:1010F00060930302709304028093050290930602AA
:1011000020E030E040EE51E4C701B6010E94480AF9
:1011100029813A814B815C810E9454092B013C0159
:10112000A5019401C701B6010E94480A9B01AC01C8
:10113000C301B2010E9454092AE037ED43EA5BE3A0
:101140000E94480A29813A814B815C810E9455099D
:101150002B013C014092000150920101609202017A
:1011600070920301A701960169817A818B819C812C
:101170000E94480A6B017C01A5019401C501B401DC
:101180000E9455099B01AC01C701B6010E94540998
:101190002AE037ED43EA5BE30E94480AA501940187
:1011A0000E9455096093FF01709300028093010231
:1011B0009093020280916001909161010497E1F5A2
:1011C00020E030E040EA50E4C301B2010E94480A46
:1011D00020E030E046E153E40E9455090E94C10935
:1011E0007B0120E030E040E151E46D817E818F8120
:1011F00098850E94480A20E030E048E453E40E94C9
:1012000055090E94C1096B0189859A850E94400594
:101210008C2D0E9429058D2D81700E9429058E2D0F
:101220000E9429058F2D81700E9429050E942405A6
:1012300010926101109260018091600190916101B2
:1012400001969093610180936001A985BA851496F7
:10125000BA87A987A115B44309F014CF83E098E2B7
:101260000E94300580E00E94290589830E942405A0
:10127000F981F13099F383E098E20E94300580E033
:101280000E94290589830E9424052981222399F33C
:101290000115110509F4F2CE0E941004882309F407
:1012A000EDCE0E940000EACE5058BB27AA270E942C
:1012B0006C090C940E0A0E94000A38F00E94070A7A
:1012C00020F039F49F3F19F426F40C94FD090EF434
:1012D000E095E7FB0C94F709E92F0E941F0A58F3E9
:1012E000BA17620773078407950720F079F4A6F50B
:1012F0000C94410A0EF4E0950B2EBA2FA02D0B0191
:10130000B90190010C01CA01A0011124FF27591B4A
:1013100099F0593F50F4503E68F11A16F040A22F50
:10132000232F342F4427585FF3CF469537952795C1
:10133000A795F0405395C9F77EF41F16BA0B620BC0
:10134000730B840BBAF09150A1F0FF0FBB1F661F07
:10135000771F881FC2F70EC0BA0F621F731F841F4A
:1013600048F4879577956795B795F7959E3F08F070
:10137000B0CF9395880F08F09927EE0F9795879532
:1013800008950E94C8096894B1110C94420A089506
:101390000E94270A88F09F5798F0B92F9927B751D4
:1013A000B0F0E1F0660F771F881F991F1AF0BA9509
:1013B000C9F714C0B13091F00E94410AB1E008951C
:1013C0000C94410A672F782F8827B85F39F0B93F0E
:1013D000CCF3869577956795B395D9F73EF49095BC
:1013E0008095709561957F4F8F4F9F4F089597F926
:1013F0009F6780E870E060E008959FEF80EC0895BB
:1014000000240A94161617061806090608950024E3
:101410000A9412161306140605060895092E03945D
:10142000000C11F4882352F0BB0F40F4BF2B11F4D1
:1014300060FF04C06F5F7F4F8F4F9F4F089557FD30
:101440009058440F551F59F05F3F71F04795880F32
:1014500097FB991F61F09F3F79F0879508951216C9
:1014600013061406551FF2CF4695F1DF08C0161675
:1014700017061806991FF1CF869571056105089426
:101480000895E894BB2766277727CB0197F908953D
:101490000E945B0A0C940E0A0E94000A38F00E9417
:1014A000070A20F0952311F00C94F7090C94FD091C
:1014B00011240C94420A0E941F0A70F3959FC1F3F5
:1014C000950F50E0551F629FF001729FBB27F00DF2
:1014D000B11D639FAA27F00DB11DAA1F649F662747
:1014E000B00DA11D661F829F2227B00DA11D621F96
:1014F000739FB00DA11D621F839FA00D611D221F50
:10150000749F3327A00D611D231F849F600D211D33
:10151000822F762F6A2F11249F5750409AF0F1F0B6
:1015200088234AF0EE0FFF1FBB1F661F771F881F1F
:1015300091505040A9F79E3F510580F00C94F70957
:101540000C94420A5F3FE4F3983ED4F38695779576
:101550006795B795F795E7959F5FC1F7FE2B880FC5
:10156000911D9695879597F90895EE0FFF1F0590A9
:10157000F491E02D0994F894FFCF0000803F000320
:101580000C0F30333C3FC0C3CCCFF0F3FCFF000066
:1015900000004604A603D30393040404E203F60305
:1015A0004C6F72656E7A204368616F746963204185
:1015B0007474726163746F72004372656174656400
:0E15C000206279204A4C532032303231000034
:107E0000112484B714BE81FFF0D085E080938100F7
:107E100082E08093C00088E18093C10086E0809377
:107E2000C20080E18093C4008EE0C9D0259A86E02C
:107E300020E33CEF91E0309385002093840096BBD3
:107E4000B09BFECF1D9AA8958150A9F7CC24DD24C4
:107E500088248394B5E0AB2EA1E19A2EF3E0BF2EE7
:107E6000A2D0813461F49FD0082FAFD0023811F036
:107E7000013811F484E001C083E08DD089C08234E0
:107E800011F484E103C0853419F485E0A6D080C0E4
:107E9000853579F488D0E82EFF2485D0082F10E0AE
:107EA000102F00270E291F29000F111F8ED06801E7
:107EB0006FC0863521F484E090D080E0DECF843638
:107EC00009F040C070D06FD0082F6DD080E0C81688
:107ED00080E7D80618F4F601B7BEE895C0E0D1E017
:107EE00062D089930C17E1F7F0E0CF16F0E7DF06D8
:107EF00018F0F601B7BEE89568D007B600FCFDCFD4
:107F0000A601A0E0B1E02C9130E011968C91119780
:107F100090E0982F8827822B932B1296FA010C0160
:107F200087BEE89511244E5F5F4FF1E0A038BF0790
:107F300051F7F601A7BEE89507B600FCFDCF97BE46
:107F4000E89526C08437B1F42ED02DD0F82E2BD052
:107F50003CD0F601EF2C8F010F5F1F4F84911BD097
:107F6000EA94F801C1F70894C11CD11CFA94CF0C13
:107F7000D11C0EC0853739F428D08EE10CD085E9AC
:107F80000AD08FE07ACF813511F488E018D01DD067
:107F900080E101D065CF982F8091C00085FFFCCF94
:107FA0009093C60008958091C00087FFFCCF809118
:107FB000C00084FD01C0A8958091C6000895E0E648
:107FC000F0E098E1908380830895EDDF803219F02E
:107FD00088E0F5DFFFCF84E1DECF1F93182FE3DFCA
:107FE0001150E9F7F2DF1F91089580E0E8DFEE27F6
:047FF000FF270994CA
:027FFE00040479
:00000001FF
