:020000040000FA
:100000000C94E9010C9411020C9411020C9411024D
:100010000C9411020C9411020C9411020C94110214
:100020000C9411020C9411020C9411020C94110204
:100030000C9411020C9411020C9411020C941102F4
:100040000C9453040C9411020C9421040C94FB03A3
:100050000C9411020C9411020C9411020C941102D4
:100060000C9411020C94110200000008000201001F
:100070000003040700000000000000000000000072
:100080000000000018181818180018006C6C6C009C
:100090000000000036367F367F3636000C3F683E63
:1000A0000B7E180060660C1830660600386C6C38E1
:1000B0006D663B000C183000000000000C1830305A
:1000C00030180C0030180C0C0C18300000187E3C56
:1000D0007E1800000018187E1818000000000000AC
:1000E000001818300000007E000000000000000032
:1000F0000018180000060C18306000003C666E7E88
:1001000076663C001838181818187E003C66060CF5
:1001100018307E003C66061C06663C000C1C3C6CDD
:100120007E0C0C007E607C0606663C001C30607C09
:1001300066663C007E060C18303030003C66663C3B
:1001400066663C003C66663E060C380000001818E7
:100150000018180000001818001818300C1830602B
:1001600030180C0000007E007E00000030180C06E5
:100170000C1830003C660C18180018003C666E6ABB
:100180006E603C003C66667E666666007C66667CE9
:1001900066667C003C66606060663C00786C666603
:1001A000666C78007E60607C60607E007E60607C53
:1001B000606060003C66606E66663C006666667EF7
:1001C000666666007E18181818187E003E0C0C0C27
:1001D0000C6C3800666C7870786C660060606060EB
:1001E00060607E0063777F6B6B6363006666767E1C
:1001F0006E6666003C66666666663C007C66667C8B
:10020000606060003C6666666A6C36007C66667C90
:100210006C6666003C66603C06663C007E181818FA
:10022000181818006666666666663C00666666664E
:10023000663C180063636B6B7F77630066663C18EF
:100240003C6666006666663C181818007E060C1848
:1002500030607E007C60606060607C000060301810
:100260000C0600003E06060606063E00183C6642E6
:100270000000000000000000000000FF1C36307C81
:1002800030307E0000003C063E663E0060607C66CA
:1002900066667C0000003C6660663C0006063E66C2
:1002A00066663E0000003C667E603C001C30307C90
:1002B0003030300000003E66663E063C60607C6682
:1002C000666666001800381818183C0018003818C0
:1002D000181818706060666C786C6600381818180A
:1002E00018183C000000367F6B6B630000007C66D2
:1002F0006666660000003C6666663C0000007C6640
:10030000667C606000003E66663E060700006C7614
:100310006060600000003E603C067C0030307C3055
:1003200030301C000000666666663E0000006666AF
:10033000663C18000000636B6B7F36000000663C73
:10034000183C660000006666663E063C00007E0CB7
:1003500018307E000C18187018180C0018181800A7
:10036000181818003018180E18183000316B460095
:1003700000000000FFFFFFFFFFFFFFFF811500806F
:10038000EDFF00660060006C8161236003610EA8D0
:1003900082150C7000000000250028002B000000D2
:1003A0000000240027002A000404040404040404B8
:1003B0000202020202020303030303030102040810
:1003C00010204080010204081020010204081020BF
:1003D000E30811241FBECFEFD8E0DEBFCDBF11E090
:1003E000A0E0B1E0EEEFF3E102C005900D92A83578
:1003F000B107D9F724E0A8E5B1E001C01D92A13210
:10040000B207E1F711E0C9EED1E004C02197FE0187
:100410000E94F709C83ED107C9F70E949D040C94B9
:10042000FD090C94000090E0FC01E454FC4F249181
:1004300088559C4FFC018491882399F090E0880FA7
:10044000991FFC01E256FC4FA591B491FC01EC56BA
:10045000FC4F859194918FB7F894EC91E22BEC933B
:100460008FBF0895AF92BF92CF92DF92EF92FF922B
:100470000F931F93CF93DF936C017B018B01040FCC
:10048000151FEB015E01AE18BF08C017D10759F068
:100490006991D601ED91FC910190F081E02DC601AA
:1004A0000995892B79F7C501DF91CF911F910F91A4
:1004B000FF90EF90DF90CF90BF90AF900895FC0138
:1004C000538D448D252F30E0842F90E0821B930BB9
:1004D000541710F0CF96089501970895FC01918D5F
:1004E000828D981761F0A28DAE0FBF2FB11D5D9662
:1004F0008C91928D9F5F9F73928F90E008958FEF04
:100500009FEF0895FC01918D828D981731F0828DB7
:10051000E80FF11D858D90E008958FEF9FEF08950E
:10052000FC01918D228D892F90E0805C9F4F821B72
:1005300091098F739927089581E691E00E949002B6
:1005400021E0892B09F420E0822F089580E090E0DB
:10055000892B29F00E949C0281110C9400000895BF
:10056000FC01A48DA80FB92FB11DA35ABF4F2C9128
:10057000848D90E001968F739927848FA689B7891F
:100580002C93A089B1898C91837080648C93938D16
:10059000848D981306C00288F389E02D80818F7DB9
:1005A00080830895EF92FF920F931F93CF93DF9371
:1005B000EC0181E0888F9B8D8C8D98131AC0E8899F
:1005C000F989808185FF15C09FB7F894EE89FF896E
:1005D0006083E889F98980818370806480839FBF0C
:1005E00081E090E0DF91CF911F910F91FF90EF900C
:1005F0000895F62E0B8D10E00F5F1F4F0F7311271C
:10060000E02E8C8D8E110CC00FB607FCFACFE88956
:10061000F989808185FFF5CFCE010E94B002F1CF2C
:10062000EB8DEC0FFD2FF11DE35AFF4FF0829FB7CA
:10063000F8940B8FEA89FB8980818062CFCFCF93BA
:10064000DF93EC01888D8823B9F0AA89BB89E889FA
:10065000F9898C9185FD03C0808186FD0DC00FB6A0
:1006600007FCF7CF8C9185FFF2CF808185FFEDCF1E
:10067000CE010E94B002E9CFDF91CF91089590E0C2
:10068000FC01E859FF4F2491FC01E454FC4F3491E4
:10069000FC01E855FC4FE491EE23C9F0222339F028
:1006A000233001F1A8F4213019F1223029F1F0E0D2
:1006B000EE0FFF1FEC56FC4FA591B4918FB7F89445
:1006C000EC91611126C030953E233C938FBF089575
:1006D0002730A9F02830C9F0243049F780918000F4
:1006E0008F7D03C0809180008F7780938000DFCF63
:1006F00084B58F7784BDDBCF84B58F7DFBCF8091B0
:10070000B0008F778093B000D2CF8091B0008F7D02
:10071000F9CF3E2BDACF3FB7F89480915D019091ED
:100720005E01A0915F01B091600126B5A89B05C054
:100730002F3F19F00196A11DB11D3FBFBA2FA92F60
:10074000982F8827BC01CD01620F711D811D911D5D
:1007500042E0660F771F881F991F4A95D1F70895C9
:1007600061E0809100020C943F038EBD00000DB447
:1007700007FEFDCF8EB50895CF93DF93EC0160E0C7
:10078000809100020E943F038D2F0E94B5038C2FA1
:10079000DF91CF910C94B5031F93CF93DF93162F66
:1007A000EA0190680E94BC03219720F0812F0E94EB
:1007B000B503FACFDF91CF911F910C94B003CF9383
:1007C000DF93D62FC72F90680E94BC038D2F0E9405
:1007D000B5038C2F0E94B503DF91CF910C94B00329
:1007E000CF93C62F90680E94BC038C2F0E94B50344
:1007F000CF910C94B0031F920F920FB60F92112459
:100800002F933F934F935F936F937F938F939F9318
:10081000AF93BF93EF93FF9381E691E00E94B00204
:10082000FF91EF91BF91AF919F918F917F916F91C8
:100830005F914F913F912F910F900FBE0F901F909E
:1008400018951F920F920FB60F9211242F938F932A
:100850009F93EF93FF93E0917101F091720180817A
:10086000E0917701F091780182FD1BC09081809129
:100870007A018F5F8F7320917B01821741F0E091A5
:100880007A01F0E0EF59FE4F958F80937A01FF9146
:10089000EF919F918F912F910F900FBE0F901F900E
:1008A00018958081F4CF1F920F920FB60F921124EA
:1008B0002F933F938F939F93AF93BF938091590151
:1008C00090915A01A0915B01B0915C013091580167
:1008D00023E0230F2D3758F50196A11DB11D20935C
:1008E00058018093590190935A01A0935B01B093F2
:1008F0005C0180915D0190915E01A0915F01B091DA
:1009000060010196A11DB11D80935D0190935E0170
:10091000A0935F01B0936001BF91AF919F918F91C0
:100920003F912F910F900FBE0F901F90189526E8C2
:10093000230F0296A11DB11DD2CFCF93DF9300D01C
:1009400000D0CDB7DEB7789484B5826084BD84B51D
:10095000816084BD85B5826085BD85B5816085BDBA
:1009600080916E00816080936E0010928100809172
:1009700081008260809381008091810081608093FA
:100980008100809180008160809380008091B1001F
:1009900084608093B1008091B00081608093B0004A
:1009A00080917A00846080937A0080917A008260DE
:1009B00080937A0080917A00816080937A008091A0
:1009C0007A00806880937A001092C1000E948B03A5
:1009D0004B015C010AEFC02ED12CE12CF12C0E94BE
:1009E0008B03681979098A099B09683E7340810560
:1009F0009105A8F321E0C21AD108E108F10838EE08
:100A0000830E33E0931EA11CB11CC114D104E10478
:100A1000F10429F789E0809300020E9413025FB776
:100A20005983F8948091FE01811124C0E2EBF3E038
:100A30008491E6ECF3E09491E82FF0E0EE0FFF1FD5
:100A4000E256FC4FA591B491EC91E92321F461E0C9
:100A50008AE00E943F038AE00E9413028CB5806105
:100A60008CBD8CB580648CBD8DE00E9413028BE040
:100A70000E9413028091FE018F5F8093FE018981A5
:100A80008FBF8CB58C7F8CBD8DB581608DBD8CB5D5
:100A90008F7D8CBD8CB5837F8CBD81E08DBD61E089
:100AA000809100020E943F0361E089E098E20E9489
:100AB000F00380E090EB0E94BC03E0E0F2E0FA83F8
:100AC000E98380E90E94B50381E00E94B50380E9D3
:100AD0000E94B50381E00E94B5038091FF018F5F02
:100AE0008093FF0129813A81215031093A8329837A
:100AF000232B39F70E94B00340E058E260E090E019
:100B000080E00E94CC0340E058E060E080E098E3A1
:100B10000E94CC0340E050E460E080E090E40E945A
:100B2000CC0340E051E060E080E09AE20E94CC0318
:100B300040E850E060E080E498E20E94CC0370E07E
:100B400060E084E098E20E94DF0370E060E086E00D
:100B500098E20E94DF0360E088E098E20E94F003E0
:100B600060E08AE098E20E94F00360E08BE098E2A7
:100B70000E94F00360E08CE098E20E94F00370E0D5
:100B800060E08EE098E20E94DF0370E060E080E1C8
:100B900098E20E94DF0370E060E082E198E20E9448
:100BA000DF0370E060E08EE198E20E94DF0360E422
:100BB00084E198E20E94F00361E089E098E20E94FB
:100BC000F00380E09BEA0E94BC034CE753E05A83A9
:100BD0004983E981FA8184910E94B50329813A8190
:100BE0002F5F3F4F3A8329832459334091F70E9466
:100BF000B00360E089E098E20E94F0038EE098E2A2
:100C00000E94BC0380E00E94B50389830E94B00368
:100C10005981852F90E00E9461090CE710E0C12CFA
:100C2000B2E1DB2EF8018491A82FAF70B0E0AA5E8C
:100C3000BE4FFC90E82FF0E0A4E0F595E795AA956B
:100C4000E1F7EA5EFE4F6081C6010E94F0036F2D5E
:100C5000C60101960E94F0030F5F1F4FF2E0CF0E16
:100C6000D11CC11428E1D206E9F640E051E25A83D2
:100C7000498360E070E889819A810E94DF036FEF09
:100C80007FE789819A8106960E94DF0389819A8194
:100C900008969A8389838115944259F740E050E180
:100CA00060E290E080E00E94CC03A12CE0E3BE2E45
:100CB0001A821982F3E0CF2ED12CE980FA80F0EF6E
:100CC000EF2228E4E20EF11C09811A810F7011272E
:100CD00044E0000F111F4A95E1F70A5E1F4FC5015E
:100CE00090680E94BC038E2D0E94B50389819A8171
:100CF00056E0959587955A95E1F7A601481B590B43
:100D0000CA01880F991F886050E18502C001112433
:100D10008F290E94B503802F0E94B50389819A8193
:100D2000880F991F8E779927812B0E94B5030E9407
:100D3000B00389819A8101969A83898394E0A90EF0
:100D4000B11CE981FA81E115F14009F0B6CF8BE4DD
:100D500090E80E94BC0346E251E05A834983E9814E
:100D6000FA818191FA83E983882319F00E94B503FF
:100D7000F6CF0E94B00380E199E80E94BC0323E40F
:100D800031E03A832983E981FA818191FA83E98309
:100D9000882319F00E94B503F6CF0E94B00334E017
:100DA000232E40E050E460E080E090E40E94CC0319
:100DB00063E67CE080E898E20E94DF030E945C0921
:100DC0008C010E945C09FC01C80160E071E00E9496
:100DD000CF09B3E095958795BA95E1F79C01322F3D
:100DE0002227330F330FCF0160E071E00E94CF095B
:100DF0008C0183E0159507958A95E1F795E0000F42
:100E0000111F9A95E1F7022B132B0E945C0960E0F9
:100E100071E00E94CF09BC0123E0759567952A9582
:100E2000E1F7602B712B82E898E20E94DF030E94B9
:100E30005C098C010E945C09FC01C80160E071E062
:100E40000E94CF0933E0959587953A95E1F79C018B
:100E5000322F2227330F330FCF0160E071E00E9461
:100E6000CF098C0153E0159507955A95E1F765E098
:100E7000000F111F6A95E1F7022B132B0E945C09EA
:100E800060E071E00E94CF09BC01E3E075956795D1
:100E9000EA95E1F7602B712B84E898E20E94DF036A
:100EA0000E945C098C010E945C09FC01C80160E0A1
:100EB00071E00E94CF09A3E095958795AA95E1F787
:100EC0009C01322F2227330F330FCF0160E071E0F6
:100ED0000E94CF098C0183E0159507958A95E1F76B
:100EE00095E0000F111F9A95E1F7022B132B0E943A
:100EF0005C0960E071E00E94CF09BC0123E07595B8
:100F000067952A95E1F7602B712B86E898E20E949D
:100F1000DF0301E013E00E945C096BE070E00E94D7
:100F2000CF09F801819391938F012FE133E02E17C0
:100F30003F0789F7A1E0EA2EA2E0FA2E01E213E0D2
:100F40000E945C0965E070E00E94CF09F80181937E
:100F50008F01F70111927F0121E234E02017310760
:100F600079F7512C412CA20150645C834B83E1E260
:100F70006E2EE3E07E2E1A821982F1E0EF2EF2E06F
:100F8000FF2E10E000E00115110509F001C180916C
:100F9000200490912103E82FE90FFF27FF1F9F01F5
:100FA00080912203820F932F911D909320038093B1
:100FB0001F0380911F039091200320910103309122
:100FC00002032817390771F02091030330910403BD
:100FD0008217930739F02091050330910603821799
:100FE000930711F4F7011082209107033091080351
:100FF0008217930771F02091090330910A03821739
:10100000930739F020910B0330910C03821793075B
:1010100019F421E0F701208320910D0330910E0394
:101020008217930771F020910F03309110038217FC
:10103000930739F02091110330911203821793071F
:1010400019F422E0F7012083209113033091140357
:101050008217930771F020911503309116038217C0
:10106000930739F0209117033091180382179307E3
:1010700019F423E0F70120832091190330911A031A
:101080008217930771F020911B0330911C03821784
:10109000930739F020911D0330911E0382179307A7
:1010A00011F4F7012082F70131907F013394F32D81
:1010B000F3703F2E8F2E912CC980DA80CC2420E350
:1010C000D2224B815C81C42AD52A802F8F70C82AF6
:1010D000C80125E0959587952A95E1F786709927AF
:1010E00030ECA32EB12C02C0B594A7948A95E2F7F8
:1010F000C6010E94BC0380E00E94B503B82E0E9486
:10110000B003B40146E0660F771F4A95E1F7C401CA
:1011100054E0880F991F5A95E1F7682B6329880CD2
:10112000991C880C991C68296A21A094BA206B2903
:10113000C6010E94F0030F5F1F4F89819A8193952A
:101140009A8389839FEF691A790A0115E1E01E07E6
:1011500009F019CF80E0E1E0F2E0A1E2B3E0019014
:101160000D928A95E1F7F0E14F0E511C411420E1F8
:10117000520609F0F8CE80E090E0892B09F411CEF8
:101180000E949C02882309F40CCE0E94000009CE24
:101190000F3F110561F480911F0490912004482FA6
:1011A000490F5527551F9A0180912103FBCEF3016A
:1011B00031978081F3019081482F490F5527551FA2
:1011C0009A018181EFCEE1E6F1E01382128288EE8E
:1011D00093E0A0E0B0E084839583A683B78388E0A2
:1011E00091E09183808385EC90E09587848784ECFF
:1011F00090E09787868780EC90E0918B808B81ECE4
:1012000090E0938B828B82EC90E0958B848B86ECC4
:1012100090E0978B868B118E128E138E148E08950C
:101220008F929F92AF92BF92CF92DF92EF92FF92F6
:10123000CF93DF93EC01688179818A819B8161156D
:1012400071058105910521F464E279ED8BE597E064
:101250002DE133EF41E050E00E946C0949015A0151
:101260009B01AC01A7EAB1E40E948B096B017C01F0
:10127000ACEEB4EFA50194010E949909DC01CB0109
:101280008C0D9D1DAE1DBF1DB7FF03C00197A109A9
:10129000B04888839983AA83BB839F77DF91CF91DE
:1012A000FF90EF90DF90CF90BF90AF909F908F9086
:1012B00008950E941009089580E091E00E941009AD
:1012C0000895B0E0A0E08093000190930101A09305
:1012D0000201B09303010895052E97FB1EF40094BC
:1012E0000E94830957FD07D00E949E0907FC03D086
:1012F0004EF40C94830950954095309521953F4FBD
:101300004F4F5F4F089590958095709561957F4FF1
:101310008F4F9F4F08950E94C009A59F900DB49FC5
:10132000900DA49F800D911D11240895B7FF0C947A
:101330008B090E948B09821B930B0895A1E21A2E40
:10134000AA1BBB1BFD010DC0AA1FBB1FEE1FFF1F69
:10135000A217B307E407F50720F0A21BB30BE40BB9
:10136000F50B661F771F881F991F1A9469F7609500
:101370007095809590959B01AC01BD01CF010895BA
:10138000A29FB001B39FC001A39F700D811D1124C6
:10139000911DB29F700D811D1124911D089597FB21
:1013A000072E16F4009407D077FD09D00E94E309B8
:1013B00007FC05D03EF4909581959F4F0895709558
:1013C00061957F4F0895AA1BBB1B51E107C0AA1F5F
:1013D000BB1FA617B70710F0A61BB70B881F991FD6
:1013E0005A95A9F780959095BC01CD010895EE0F0F
:1013F000FF1F0590F491E02D0994F894FFCF0100B0
:10140000000000000000D20232025F021F039002BF
:101410006E02820200030C0F30333C3FC0C3CCCFBE
:10142000F0F3FCFF352D7374617465203144206343
:10143000656C6C756C6172206175746F6D6174613F
:101440000043726561746564206279204A4C5320C0
:06145000323032310000D1
:107E0000112484B714BE81FFF0D085E080938100F7
:107E100082E08093C00088E18093C10086E0809377
:107E2000C20080E18093C4008EE0C9D0259A86E02C
:107E300020E33CEF91E0309385002093840096BBD3
:107E4000B09BFECF1D9AA8958150A9F7CC24DD24C4
:107E500088248394B5E0AB2EA1E19A2EF3E0BF2EE7
:107E6000A2D0813461F49FD0082FAFD0023811F036
:107E7000013811F484E001C083E08DD089C08234E0
:107E800011F484E103C0853419F485E0A6D080C0E4
:107E9000853579F488D0E82EFF2485D0082F10E0AE
:107EA000102F00270E291F29000F111F8ED06801E7
:107EB0006FC0863521F484E090D080E0DECF843638
:107EC00009F040C070D06FD0082F6DD080E0C81688
:107ED00080E7D80618F4F601B7BEE895C0E0D1E017
:107EE00062D089930C17E1F7F0E0CF16F0E7DF06D8
:107EF00018F0F601B7BEE89568D007B600FCFDCFD4
:107F0000A601A0E0B1E02C9130E011968C91119780
:107F100090E0982F8827822B932B1296FA010C0160
:107F200087BEE89511244E5F5F4FF1E0A038BF0790
:107F300051F7F601A7BEE89507B600FCFDCF97BE46
:107F4000E89526C08437B1F42ED02DD0F82E2BD052
:107F50003CD0F601EF2C8F010F5F1F4F84911BD097
:107F6000EA94F801C1F70894C11CD11CFA94CF0C13
:107F7000D11C0EC0853739F428D08EE10CD085E9AC
:107F80000AD08FE07ACF813511F488E018D01DD067
:107F900080E101D065CF982F8091C00085FFFCCF94
:107FA0009093C60008958091C00087FFFCCF809118
:107FB000C00084FD01C0A8958091C6000895E0E648
:107FC000F0E098E1908380830895EDDF803219F02E
:107FD00088E0F5DFFFCF84E1DECF1F93182FE3DFCA
:107FE0001150E9F7F2DF1F91089580E0E8DFEE27F6
:047FF000FF270994CA
:027FFE00040479
:00000001FF
