:020000040000FA
:100000000C94C9070C94F1070C94F1070C94F107B8
:100010000C94F1070C94F1070C94F1070C94F10780
:100020000C94F1070C94F1070C94F1070C94F10770
:100030000C94F1070C94F1070C94F1070C94F10760
:100040000C944C0A0C94F1070C941A0A0C94F409C1
:100050000C94F1070C94F1070C94F1070C94F10740
:100060000C94F1070C94F107000000080002010055
:100070000003040700000000000000000000000072
:100080000000000018181818180018006C6C6C009C
:100090000000000036367F367F3636000C3F683E63
:1000A0000B7E180060660C1830660600386C6C38E1
:1000B0006D663B000C183000000000000C1830305A
:1000C00030180C0030180C0C0C18300000187E3C56
:1000D0007E1800000018187E1818000000000000AC
:1000E000001818300000007E000000000000000032
:1000F0000018180000060C18306000003C666E7E88
:1001000076663C001838181818187E003C66060CF5
:1001100018307E003C66061C06663C000C1C3C6CDD
:100120007E0C0C007E607C0606663C001C30607C09
:1001300066663C007E060C18303030003C66663C3B
:1001400066663C003C66663E060C380000001818E7
:100150000018180000001818001818300C1830602B
:1001600030180C0000007E007E00000030180C06E5
:100170000C1830003C660C18180018003C666E6ABB
:100180006E603C003C66667E666666007C66667CE9
:1001900066667C003C66606060663C00786C666603
:1001A000666C78007E60607C60607E007E60607C53
:1001B000606060003C66606E66663C006666667EF7
:1001C000666666007E18181818187E003E0C0C0C27
:1001D0000C6C3800666C7870786C660060606060EB
:1001E00060607E0063777F6B6B6363006666767E1C
:1001F0006E6666003C66666666663C007C66667C8B
:10020000606060003C6666666A6C36007C66667C90
:100210006C6666003C66603C06663C007E181818FA
:10022000181818006666666666663C00666666664E
:10023000663C180063636B6B7F77630066663C18EF
:100240003C6666006666663C181818007E060C1848
:1002500030607E007C60606060607C000060301810
:100260000C0600003E06060606063E00183C6642E6
:100270000000000000000000000000FF1C36307C81
:1002800030307E0000003C063E663E0060607C66CA
:1002900066667C0000003C6660663C0006063E66C2
:1002A00066663E0000003C667E603C001C30307C90
:1002B0003030300000003E66663E063C60607C6682
:1002C000666666001800381818183C0018003818C0
:1002D000181818706060666C786C6600381818180A
:1002E00018183C000000367F6B6B630000007C66D2
:1002F0006666660000003C6666663C0000007C6640
:10030000667C606000003E66663E060700006C7614
:100310006060600000003E603C067C0030307C3055
:1003200030301C000000666666663E0000006666AF
:10033000663C18000000636B6B7F36000000663C73
:10034000183C660000006666663E063C00007E0CB7
:1003500018307E000C18187018180C0018181800A7
:10036000181818003018180E18183000316B460095
:1003700000000000FFFFFFFFFFFFFFFFFF7FFF7F89
:10038000FF7FDE7BBD779C739C737B6F7B6F5A6BAB
:100390005A6B5A6B39671863F75EF75EF75EF75E64
:1003A000B556B5569452734E734E524A524A314620
:1003B0003146EF3DCE39CE39CE39AD35AD35AD35DF
:1003C0008C318C316B2D6B2D4A29292500000000C2
:1003D000000000000000000000000000000000001D
:1003E000000000000000000000000000000000000D
:1003F00000000000000000000000000000000000FD
:1004000000000000000000000000000000000000EC
:1004100000000000000000000000000000000000DC
:1004200000000000000000000000000000000000CC
:1004300000000000000000000000000000000000BC
:1004400000000000000000000000000000000000AC
:10045000000000000000000000000000000000009C
:10046000000000000000000000000000000000008C
:10047000000000000000000000000000000000007C
:10048000000000000000000000000000000000006C
:10049000000000000000000000000000000000005C
:1004A000000000000000000000000000000000004C
:1004B000000000000000000000000000000000003C
:1004C000000000000000000000000000000000002C
:1004D000000000000000000000000000000000001C
:1004E000000000000000000000000000000000000C
:1004F00000000000000000000000000000000000FC
:1005000000000000000000000000000000000000EB
:1005100000000000000000000000000000000000DB
:1005200000000000000000000000000000000000CB
:1005300000000000000000000000000000000000BB
:1005400000000000000000000000000000000000AB
:10055000000000000000000000000000000000009B
:10056000000000000000000000000000000000008B
:10057000000000000000000000000080FFFFFFFFFF
:10058000FFFFFFFFFFFFFFFFFFFFFFFFFFFFFFFF7B
:1005900000000000030B1220FFFFFFFFFFFFFF0022
:1005A0000000000001060F1723FFFFFFFFFF000000
:1005B0000000000002070E161E27FFFFFF000000CC
:1005C00000000000030911171F2727FFFF0000008C
:1005D00000000001050C1219222727FFFF00000070
:1005E000000000040A10151B252727FFFF0000004C
:1005F000000104080D141A21272727FFFF03010219
:1006000003050A0D13181D26272727FFFF0B0607D2
:10061000090C1014181C2427272727FFFF120F0E80
:100620001112151A1D242727272727FFFF20171629
:1006300017191B2126272727272727FFFFFF231E00
:100640001F222527272727272727FFFFFFFFFF2711
:10065000272727272727272727FFFFFFFFFFFFFF42
:100660002727272727272727FFFFFFFFFFFFFFFF5A
:10067000FFFFFFFFFFFFFFFFFFFFFFFF0000000086
:100680000000000021040000000000002104000020
:100690000000000021040000000000002104000010
:1006A0000000000000004208210400000000420891
:1006B000210400000000420821040000000042085C
:1006C00021040000630C84104208000042088410DA
:1006D000630C0000630C841042080000630C84105B
:1006E00042080000A514630C8410C618A514630CFE
:1006F00084100000A5148410630C0000A514630C82
:1007000084100000C618A514E71C0000C618A51424
:10071000E71C0000C618A514E71C0000C618A514A5
:10072000E71C0000E71CC61808210000C618E71CDB
:1007300008210000C618E71C08210000C618E71CA5
:1007400008210000082129254A290000292508211F
:100750004A290000082129254A29000029250821C5
:100760004A29000029256B2D4A29000029256B2DD7
:100770004A298C3129256B2D4A298C3129256B2D4D
:100780004A298C318C31AD356B2D00008C31AD3563
:100790006B2D00008C31AD356B2D00008C31AD35EB
:1007A0006B2D00008C31EF3DAD35CE398C31EF3DF6
:1007B000AD35CE398C31AD35CE390000AD358C310B
:1007C000CE390000EF3DCE3910420000EF3DCE396A
:1007D00010420000EF3DCE3910420000EF3DCE390F
:1007E00010420000EF3D314610420000EF3D31461F
:1007F0001042524AEF3D31461042524AEF3D3146D7
:1008000010420000524A734E314600003146734E8A
:10081000524A00003146734E524A00003146734E30
:10082000524A00009452734E524AB5569452524A5C
:10083000734EB5569452524A734E00009452734E02
:10084000B5560000D65A9452B5560000D65A945266
:10085000B5560000D65A9452B5560000D65AB55631
:1008600094520000D65AB556F75E0000F75ED65A8D
:1008700018630000B556D65AF75E0000F75ED65AE8
:1008800018630000F75E1863396700001863F75EAD
:1008900039670000F75E186339670000F75E186378
:1008A00039670000186339677B6F5A6B5A6B396779
:1008B00000000000186339677B6F5A6B1863396753
:1008C0005A6B00007B6F9C735A6B00007B6F9C73AC
:1008D0005A6B00007B6F9C735A6B00007B6F9C739C
:1008E0005A6B0000BD77DE7B9C7300007B6F9C73AE
:1008F000BD770000BD77DE7B9C730000BD77DE7B9B
:100900009C730000DE7BBD77FF7F0000BD77DE7B40
:10091000FF7F0000DE7BBD77FF7F0000DE7BBD77C1
:10092000FF7F0000FF7FDE7B00000000FF7F0000F4
:1009300000000000DE7BFF7F0000000000000000E0
:100940000000000000000000000000005555555553
:1009500055555555555545545140054555555555D1
:10096000555555555555455501405000555555550A
:1009700055555555555555515405500155555555D5
:10098000555555555555555514555511AA80AAAA72
:10099000AA9A9A569659659555665555AAAAA2AA35
:1009A000AA9A6AA6A569555965695555A8AAAAA81B
:1009B000AA66A9A9699965695566555588AAAAAA1A
:1009C000A66AA66599A65AA655555555AAA80A28F5
:1009D0008A0820000000004155044015800A020AE0
:1009E000AAA88AAAAAAA5AA95A6A9596A22A2A80C5
:1009F000800002080000005014005510A2AA8AA826
:100A0000220800000000100040014554A56A6A6AEF
:100A1000A8AAAAAA0AA2208A00200300AA9AAAAA1F
:100A2000AAAA2AA28082800200000000A69565552D
:100A30001555455100451401040000009A5A59A962
:100A4000A00A822AA002080880000000454154152F
:100A500000004104000000288202882840545550BC
:100A6000445040040000002088A2AA2A5155550491
:100A7000000400010000200220222882545111416C
:100A800004004104000000002A80022A4501000001
:100A9000000008800882AAA2AAAAAAAA5511555540
:100AA00055A565995A6A96A6AAAAAAAA5515555592
:100AB000555556995695A9AAAAAAAAAA50155555A8
:100AC000A5959966A956A9AAAA9AAAAA400015119D
:100AD00054151555555595656955AA6944105450D6
:100AE000101110010000A2A202002A2050005000A4
:100AF0005041555555556A59A5A5669A55555114F5
:100B0000104041040000808A0020A8A88A20AAAAD8
:100B1000AAA96699AAA6555559555555AA8AAAAAA9
:100B2000AAAAA6A96695565A55555D5DA28AAAAA93
:100B3000A6A666556AAA6595555555DDAA28AAAA9E
:100B400066AAA969956A659555555557A08A2AA040
:100B500080A200000000011011144515A8AA2A2047
:100B600022A2200000001011401015558882882A0A
:100B700000820000000040000050515582AAA08869
:100B80000A02800200001000450544558AA2AAAA64
:100B9000AAAAFFABFBABFBEFFFEFFDFFA288AAAA5F
:100BA000BEAABFABABEEFBFFFFFFDF7F5544555541
:100BB0005956A5656A6AA9AA9AA6AAAA4100000080
:100BC00000080A0080AAA0A02AAAAAAA454544456E
:100BD0000400000000008022AA0A80A85555115187
:100BE0004040000000002820282AA2A05554444478
:100BF0005440001020000008A28A8222555141541E
:100C0000004000000000002208A20082A2AAAAAAB6
:100C1000A59AA9A9995A566555555555888AAAAADB
:100C2000A6AA966A66665555955655D5A2AAAA9A59
:100C3000AAA9AA6A955699555555757DA8AAAAAA32
:100C4000AA6966A6A99A556556555555A22A88A837
:100C50000820000040105440400145458002280013
:100C60002882AAA8AAA96A5A56A9565680A08828F6
:100C7000A8AAAAAAAAAAA6AA99A5556980808A00A4
:100C8000828AAAA8AAAA5AAA559A59A99555555529
:100C90005505441150444001000030009AAAA8AA0A
:100CA0000AAA0A28208800020000C000AAA6AAAA50
:100CB00088A200800800000808000000555555551E
:100CC0004450154141514054000000209556A6AAB9
:100CD0009A66AAAAA2AAAAAA28820000A5AAA5AAD8
:100CE000AA9669AAAAA2A22800A880A2A55656A9D7
:100CF000AAA59AA9A8AA2AAAAA8A2808AA6AA6A678
:100D000095A55559555555454401400040000000F2
:100D10002000AAA2AA08A228AAAAAAAA55555555EF
:100D200054455551400500400000020255115565DB
:100D3000595A55599A56AA6AAAAAAAAA5555555552
:100D40005515151144000011000080004045101495
:100D5000551555556556655555A55A6A541514418E
:100D600004510400820000222A20AA0A4010041123
:100D700054500455556556556A99AA9A4415054527
:100D8000555555555566555595A5AA9641545555F1
:100D90005575F5DDFF7F5557FFFFFBFF5555555541
:100DA00051054154045011000000000051555555A3
:100DB0005555775F5F7DFFFFFFFFAFFF55455565D9
:100DC0006959A9659AAAAA99AAAAAAAAA2880228D0
:100DD0000088000040001011550540558008022A87
:100DE000000020000000014115505151A2020008EE
:100DF00080800000100004040111445582A280A8E4
:100E0000000000204000010050014554AAAA2AAA6F
:100E1000AAAA22A222802080000000105155555518
:100E2000555695A6A9A5AA9AAAAAAAAAAAAAAAAAFA
:100E3000A888082A8820080200000104AAAAAAAAF1
:100E400082AA000A0228008000000400415555547F
:100E50000140000000000AA20AA0A8AA4014510400
:100E6000555455515555566969596AAA5555450500
:100E700000040000A20080A2008AAAAA4114005423
:100E8000140400000000000822A0A2AA40010000F3
:100E90000000000000000000000000000000000052
:100EA00000000000000000000000000055545555EF
:100EB0005555555555555555555555558080808036
:100EC0008080808080808080808080808080808022
:100ED0008080808080808080808080808080808012
:100EE0008080808080808080808080808080808002
:100EF00080808080808080808080808081828384E8
:100F000085868788898A8B8C8D8E8F909192939419
:100F100095969798999A9B9C9D9E9FA0A1A2A3A409
:100F2000A5A6A7A8A9AAABACADAEAFB0B1B2B3B4F9
:100F3000B5B6B7B8B9BABBBCBDBEBFC0C1C2C3C4E9
:100F4000C5C6C7C8C9CACBCCCDCECFD0D1D2D3D4D9
:100F5000D5D6D6D700000000250028002B000000C1
:100F60000000240027002A000404040404040404EC
:100F70000202020202020303030303030102040844
:100F800010204080010204081020010204081020F3
:100F9000960A11241FBECFEFD8E0DEBFCDBF11E00F
:100FA000A0E0B1E0EAEAFEE102C005900D92A435AE
:100FB000B107D9F722E0A4E5B1E001C01D92A73046
:100FC000B207E1F717E0C9ECD7E004C02197FE01B2
:100FD0000E944D0FC83CD107C9F70E94C30A0C9468
:100FE000530F0C94000090E0FC01E458F04F249162
:100FF0008859904FFC018491882399F090E0880FE4
:10100000991FFC01E25AF04FA591B491FC01EC5AF2
:10101000F04F859194918FB7F894EC91E22BEC937B
:101020008FBF0895AF92BF92CF92DF92EF92FF925F
:101030000F931F93CF93DF936C017B018B01040F00
:10104000151FEB015E01AE18BF08C017D10759F09C
:101050006991D601ED91FC910190F081E02DC601DE
:101060000995892B79F7C501DF91CF911F910F91D8
:10107000FF90EF90DF90CF90BF90AF900895FC016C
:10108000538D448D252F30E0842F90E0821B930BED
:10109000541710F0CF96089501970895FC01918D93
:1010A000828D981761F0A28DAE0FBF2FB11D5D9696
:1010B0008C91928D9F5F9F73928F90E008958FEF38
:1010C0009FEF0895FC01918D828D981731F0828DEC
:1010D000E80FF11D858D90E008958FEF9FEF089543
:1010E000FC01918D228D892F90E0805C9F4F821BA7
:1010F00091098F739927089582E691E00E94700804
:1011000021E0892B09F420E0822F089580E090E00F
:10111000892B29F00E947C0881110C94000008950D
:10112000FC01A48DA80FB92FB11DA35ABF4F2C915C
:10113000848D90E001968F739927848FA689B78953
:101140002C93A089B1898C91837080648C93938D4A
:10115000848D981306C00288F389E02D80818F7DED
:1011600080830895EF92FF920F931F93CF93DF93A5
:10117000EC0181E0888F9B8D8C8D98131AC0E889D3
:10118000F989808185FF15C09FB7F894EE89FF89A2
:101190006083E889F98980818370806480839FBF40
:1011A00081E090E0DF91CF911F910F91FF90EF9040
:1011B0000895F62E0B8D10E00F5F1F4F0F73112750
:1011C000E02E8C8D8E110CC00FB607FCFACFE8898B
:1011D000F989808185FFF5CFCE010E949008F1CF7B
:1011E000EB8DEC0FFD2FF11DE35AFF4FF0829FB7FF
:1011F000F8940B8FEA89FB8980818062CFCFCF93EF
:10120000DF93EC01888D8823B9F0AA89BB89E8892E
:10121000F9898C9185FD03C0808186FD0DC00FB6D4
:1012200007FCF7CF8C9185FFF2CF808185FFEDCF52
:10123000CE010E949008E9CFDF91CF91089590E010
:10124000FC01E859FF4F2491FC01E458F04F349120
:10125000FC01E859F04FE491EE23C9F0222339F064
:10126000233001F1A8F4213019F1223029F1F0E006
:10127000EE0FFF1FEC5AF04FA591B4918FB7F89481
:10128000EC91611126C030953E233C938FBF0895A9
:101290002730A9F02830C9F0243049F78091800028
:1012A0008F7D03C0809180008F7780938000DFCF97
:1012B00084B58F7784BDDBCF84B58F7DFBCF8091E4
:1012C000B0008F778093B000D2CF8091B0008F7D37
:1012D000F9CF3E2BDACF3FB7F89480915901909126
:1012E0005A01A0915B01B0915C0126B5A89B05C095
:1012F0002F3F19F00196A11DB11D3FBFBA2FA92F95
:10130000982F8827BC01CD01620F711D811D911D91
:1013100042E0660F771F881F991F4A95D1F70895FD
:1013200061E080915F010C941F098EBD00000DB437
:1013300007FEFDCF8EB50895CF93DF93EC0160E0FB
:1013400080915F010E941F098D2F0E9495098C2FAB
:10135000DF91CF910C94950990680C949C090F93A0
:101360001F93CF93DF93EB018A010E94AC090C0F0E
:101370001D1FC017D10731F0FE0184910E9495090D
:101380002196F7CFDF91CF911F910F910C94900987
:101390001F93CF93DF93162FEA010E94AC09219788
:1013A00020F0812F0E949509FACFDF91CF911F91F4
:1013B0000C949009CF93DF93D62FC72F0E94AC09CE
:1013C0008D2F0E9495098C2F0E949509DF91CF9156
:1013D0000C949009CF93C62F0E94AC098C2F0E94C9
:1013E0009509CF910C9490091F920F920FB60F920E
:1013F00011242F933F934F935F936F937F938F931A
:101400009F93AF93BF93EF93FF9382E691E00E9487
:101410009008FF91EF91BF91AF919F918F917F9134
:101420006F915F914F913F912F910F900FBE0F9051
:101430001F9018951F920F920FB60F9211242F93A1
:101440008F939F93EF93FF93E0917201F09173015B
:101450008081E0917801F091790182FD1BC090813B
:1014600080917B018F5F8F7320917C01821741F007
:10147000E0917B01F0E0EE59FE4F958F80937B0168
:10148000FF91EF919F918F912F910F900FBE0F9031
:101490001F9018958081F4CF1F920F920FB60F9274
:1014A00011242F933F938F939F93AF93BF9380917A
:1014B000550190915601A0915701B091580130917A
:1014C000540123E0230F2D3758F50196A11DB11DBE
:1014D000209354018093550190935601A093570196
:1014E000B09358018091590190915A01A0915B01EC
:1014F000B0915C010196A11DB11D8093590190939B
:101500005A01A0935B01B0935C01BF91AF919F9191
:101510008F913F912F910F900FBE0F901F901895B4
:1015200026E8230F0296A11DB11DD2CFE2E6F1E01D
:101530001382128288EE93E0A0E0B0E0848395836A
:10154000A683B78388E191E09183808385EC90E066
:101550009587848784EC90E09787868780EC90E07D
:10156000918B808B81EC90E0938B828B82EC90E06E
:10157000958B848B86EC90E0978B868B118E128EE8
:10158000138E148E0895CF93DF93CDB7DEB72A97CD
:101590000FB6F894DEBF0FBECDBF789484B58260DD
:1015A00084BD84B5816084BD85B5826085BD85B507
:1015B000816085BD80916E00816080936E00109285
:1015C0008100809181008260809381008091810000
:1015D0008160809381008091800081608093800091
:1015E0008091B10084608093B1008091B0008160EF
:1015F0008093B00080917A00846080937A0080911B
:101600007A00826080937A0080917A008160809372
:101610007A0080917A00806880937A001092C100ED
:101620000E946B094B015C014AEFC42ED12CE12CC6
:10163000F12C0E946B09681979098A099B09683E97
:10164000734081059105A8F321E0C21AD108E10891
:10165000F10888EE880E83E0981EA11CB11CC1140D
:10166000D104E104F10429F789E080935F010E942D
:10167000F307BFB7B983F89480915D01811124C04D
:10168000E2E7FFE08491E6E8FFE09491E82FF0E0E4
:10169000EE0FFF1FE25AF04FA591B491EC91E923B0
:1016A00021F461E08AE00E941F098AE00E94F307AA
:1016B0008CB580618CBD8CB580648CBD8DE00E9442
:1016C000F3078BE00E94F30780915D018F5F8093A9
:1016D0005D01E981EFBF8CB58C7F8CBD8DB58160DC
:1016E0008DBD8CB58F7D8CBD8CB5837F8CBD81E02D
:1016F0008DBD61E080915F010E941F0961E089E07A
:1017000098E20E94EA0980E090EB0E949C0980E048
:1017100092E09A83898380E90E94950981E00E9482
:10172000950980E90E94950981E00E9495098091C0
:101730005E018F5F80935E01A981BA811197BA83A0
:10174000A983AB2B41F70E94900940E058E260E08A
:1017500090E080E00E94C80940E058E060E080E04E
:1017600098E30E94C80940E050E460E080E090E423
:101770000E94C80940E051E060E080E09AE20E94E7
:10178000C80940E850E060E080E498E20E94C8099F
:1017900070E060E084E098E20E94DA0970E060E0C6
:1017A00086E098E20E94DA0960E088E098E20E9410
:1017B000EA0960E08AE098E20E94EA0960E08BE0D2
:1017C00098E20E94EA0960E08CE098E20E94EA094F
:1017D00070E060E08EE098E20E94DA0970E060E07C
:1017E00080E198E20E94DA0970E060E082E198E22C
:1017F0000E94DA0970E060E08EE198E20E94DA0966
:1018000060E484E198E20E94EA090CE710E0C12C50
:1018100022E1D22EF8018491A82FAF70B0E0AC5F26
:10182000BE4FFC90E82FF0E094E0F595E7959A958F
:10183000E1F7EC5FFE4F6081C6010E94EA096F2D5F
:10184000C60101960E94EA090F5F1F4FF2E0CF0E1A
:10185000D11CC11428E1D206E9F680E091E29A8316
:10186000898360E070E889819A810E94DA096FEFCC
:101870007FE789819A8106960E94DA09A981BA8157
:101880001896BA83A983A115B44259F740E050E1F4
:1018900060E290E080E00E94C8098CEBE82E8EE0C8
:1018A000F82E1A82198210E000E0F7016491898114
:1018B0009A81800F911F0E94EA090F5F1F4F023328
:1018C000110599F7F4E0EF0EF11C89819A81805C93
:1018D0009F4F9A8389838038994029F740E855E0E3
:1018E0006CE379E080E098E10E94AF0940EC52E0BF
:1018F0006CE776E080E094E20E94AF0940E051E0BE
:101900006CE775E080E090E40E94AF0940E052E0AF
:101910006CE773E080E098E30E94AF098EE490E00A
:101920000E94AC09E6E2F1E0FA83E983A981BA8179
:101930008D91BA83A983882319F00E949509F6CF67
:101940000E94900980E199E00E94AC09EFE3F1E088
:10195000FA83E983A981BA818D91BA83A983882307
:1019600019F00E949509F6CF0E949009E0E0F0E39B
:10197000FA83E98389819A810E94AC0980E90E94F7
:10198000950981E00E94950980E90E94950981E00E
:101990000E9495090E94900989819A8104969A83F0
:1019A00089838115944331F700E010E0E0E0F0E333
:1019B000FA87E9878091000190910101A0910201CD
:1019C000B091030189839A83AB83BC83C0900302E7
:1019D000D0900402E0900502F09006028090FF0192
:1019E00090900002A0900102B0900202A70196011F
:1019F000BC01CD010E94EC0D20E030E040E251E45A
:101A00000E94E00E2AE037ED43EA5BE30E94E00E1D
:101A1000A70196010E94ED0D6D837E838F839887C9
:101A20006093030270930402809305029093060270
:101A300020E030E040EE51E4C701B6010E94E00E24
:101A400029813A814B815C810E94EC0D2B013C0184
:101A5000A5019401C701B6010E94E00E9B01AC01F3
:101A6000C301B2010E94EC0D2AE037ED43EA5BE3CB
:101A70000E94E00E29813A814B815C810E94ED0D2C
:101A80002B013C0140920001509201016092020141
:101A900070920301A701960169817A818B819C81F3
:101AA0000E94E00E6B017C01A5019401C501B40107
:101AB0000E94ED0D9B01AC01C701B6010E94EC0D27
:101AC0002AE037ED43EA5BE30E94E00EA5019401B2
:101AD0000E94ED0D6093FF0170930002809301025C
:101AE0009093020280916001909161010497E1F569
:101AF00020E030E040EA50E4C301B2010E94E00E71
:101B000020E030E046E153E40E94ED0D0E94590EC2
:101B10007B0120E030E040E151E46D817E818F81E6
:101B200098850E94E00E20E030E048E453E40E94F3
:101B3000ED0D0E94590E6B0189859A850E94AC09B2
:101B40008C2D0E9495098D2D81700E9495098E2DF6
:101B50000E9495098F2D81700E9495090E9490091D
:101B60001092610110926001809160019091610179
:101B700001969093610180936001A985BA851496BE
:101B8000BA87A987A115B44309F014CF83E098E27E
:101B90000E949C0980E00E94950989830E94900917
:101BA000F981F13099F383E098E20E949C0980E08A
:101BB0000E94950989830E9490092981222399F323
:101BC0000115110509F4F2CE0E947C08882309F45E
:101BD000EDCE0E940000EACE5058BB27AA270E94F3
:101BE000040E0C94A60E0E94980E38F00E949F0ED0
:101BF00020F039F49F3F19F426F40C94950E0EF45E
:101C0000E095E7FB0C948F0EE92F0E94B70E58F376
:101C1000BA17620773078407950720F079F4A6F5D1
:101C20000C94D90E0EF4E0950B2EBA2FA02D0B01BB
:101C3000B90190010C01CA01A0011124FF27591B11
:101C400099F0593F50F4503E68F11A16F040A22F17
:101C5000232F342F4427585FF3CF46953795279588
:101C6000A795F0405395C9F77EF41F16BA0B620B87
:101C7000730B840BBAF09150A1F0FF0FBB1F661FCE
:101C8000771F881FC2F70EC0BA0F621F731F841F11
:101C900048F4879577956795B795F7959E3F08F037
:101CA000B0CF9395880F08F09927EE0F97958795F9
:101CB00008950E94600E6894B1110C94DA0E089594
:101CC0000E94BF0E88F09F5798F0B92F9927B751FF
:101CD000B0F0E1F0660F771F881F991F1AF0BA95D0
:101CE000C9F714C0B13091F00E94D90EB1E0089547
:101CF0000C94D90E672F782F8827B85F39F0B93F39
:101D0000CCF3869577956795B395D9F73EF4909582
:101D10008095709561957F4F8F4F9F4F089597F9EC
:101D20009F6780E870E060E008959FEF80EC089581
:101D300000240A94161617061806090608950024AA
:101D40000A9412161306140605060895092E039424
:101D5000000C11F4882352F0BB0F40F4BF2B11F498
:101D600060FF04C06F5F7F4F8F4F9F4F089557FDF7
:101D70009058440F551F59F05F3F71F04795880FF9
:101D800097FB991F61F09F3F79F087950895121690
:101D900013061406551FF2CF4695F1DF08C016163C
:101DA00017061806991FF1CF8695710561050894ED
:101DB0000895E894BB2766277727CB0197F9089504
:101DC0000E94F30E0C94A60E0E94980E38F00E940A
:101DD0009F0E20F0952311F00C948F0E0C94950E0D
:101DE00011240C94DA0E0E94B70E70F3959FC1F384
:101DF000950F50E0551F629FF001729FBB27F00DB9
:101E0000B11D639FAA27F00DB11DAA1F649F66270D
:101E1000B00DA11D661F829F2227B00DA11D621F5C
:101E2000739FB00DA11D621F839FA00D611D221F16
:101E3000749F3327A00D611D231F849F600D211DFA
:101E4000822F762F6A2F11249F5750409AF0F1F07D
:101E500088234AF0EE0FFF1FBB1F661F771F881FE6
:101E600091505040A9F79E3F510580F00C948F0E81
:101E70000C94DA0E5F3FE4F3983ED4F386957795A1
:101E80006795B795F795E7959F5FC1F7FE2B880F8C
:101E9000911D9695879597F90895EE0FFF1F059070
:101EA000F491E02D0994F894FFCF0000803F0003E7
:101EB0000C0F30333C3FC0C3CCCFF0F3FCFF00002D
:101EC0000000B20812083F08FF0870084E086208B8
:101ED0004C6F72656E7A204368616F74696320414C
:101EE0007474726163746F720043726561746564C7
:0E1EF000206279204A4C5320323032310000FB
:107E0000112484B714BE81FFF0D085E080938100F7
:107E100082E08093C00088E18093C10086E0809377
:107E2000C20080E18093C4008EE0C9D0259A86E02C
:107E300020E33CEF91E0309385002093840096BBD3
:107E4000B09BFECF1D9AA8958150A9F7CC24DD24C4
:107E500088248394B5E0AB2EA1E19A2EF3E0BF2EE7
:107E6000A2D0813461F49FD0082FAFD0023811F036
:107E7000013811F484E001C083E08DD089C08234E0
:107E800011F484E103C0853419F485E0A6D080C0E4
:107E9000853579F488D0E82EFF2485D0082F10E0AE
:107EA000102F00270E291F29000F111F8ED06801E7
:107EB0006FC0863521F484E090D080E0DECF843638
:107EC00009F040C070D06FD0082F6DD080E0C81688
:107ED00080E7D80618F4F601B7BEE895C0E0D1E017
:107EE00062D089930C17E1F7F0E0CF16F0E7DF06D8
:107EF00018F0F601B7BEE89568D007B600FCFDCFD4
:107F0000A601A0E0B1E02C9130E011968C91119780
:107F100090E0982F8827822B932B1296FA010C0160
:107F200087BEE89511244E5F5F4FF1E0A038BF0790
:107F300051F7F601A7BEE89507B600FCFDCF97BE46
:107F4000E89526C08437B1F42ED02DD0F82E2BD052
:107F50003CD0F601EF2C8F010F5F1F4F84911BD097
:107F6000EA94F801C1F70894C11CD11CFA94CF0C13
:107F7000D11C0EC0853739F428D08EE10CD085E9AC
:107F80000AD08FE07ACF813511F488E018D01DD067
:107F900080E101D065CF982F8091C00085FFFCCF94
:107FA0009093C60008958091C00087FFFCCF809118
:107FB000C00084FD01C0A8958091C6000895E0E648
:107FC000F0E098E1908380830895EDDF803219F02E
:107FD00088E0F5DFFFCF84E1DECF1F93182FE3DFCA
:107FE0001150E9F7F2DF1F91089580E0E8DFEE27F6
:047FF000FF270994CA
:027FFE00040479
:00000001FF
