:020000040000FA
:100000000C94E9010C9411020C9411020C9411024D
:100010000C9411020C9411020C9411020C94110214
:100020000C9411020C9411020C9411020C94110204
:100030000C9411020C9411020C9411020C941102F4
:100040000C94C3050C9411020C9491050C946B054F
:100050000C9411020C9411020C9411020C941102D4
:100060000C9411020C94110200000008000201001F
:100070000003040700000000000000000000000072
:100080000000000018181818180018006C6C6C009C
:100090000000000036367F367F3636000C3F683E63
:1000A0000B7E180060660C1830660600386C6C38E1
:1000B0006D663B000C183000000000000C1830305A
:1000C00030180C0030180C0C0C18300000187E3C56
:1000D0007E1800000018187E1818000000000000AC
:1000E000001818300000007E000000000000000032
:1000F0000018180000060C18306000003C666E7E88
:1001000076663C001838181818187E003C66060CF5
:1001100018307E003C66061C06663C000C1C3C6CDD
:100120007E0C0C007E607C0606663C001C30607C09
:1001300066663C007E060C18303030003C66663C3B
:1001400066663C003C66663E060C380000001818E7
:100150000018180000001818001818300C1830602B
:1001600030180C0000007E007E00000030180C06E5
:100170000C1830003C660C18180018003C666E6ABB
:100180006E603C003C66667E666666007C66667CE9
:1001900066667C003C66606060663C00786C666603
:1001A000666C78007E60607C60607E007E60607C53
:1001B000606060003C66606E66663C006666667EF7
:1001C000666666007E18181818187E003E0C0C0C27
:1001D0000C6C3800666C7870786C660060606060EB
:1001E00060607E0063777F6B6B6363006666767E1C
:1001F0006E6666003C66666666663C007C66667C8B
:10020000606060003C6666666A6C36007C66667C90
:100210006C6666003C66603C06663C007E181818FA
:10022000181818006666666666663C00666666664E
:10023000663C180063636B6B7F77630066663C18EF
:100240003C6666006666663C181818007E060C1848
:1002500030607E007C60606060607C000060301810
:100260000C0600003E06060606063E00183C6642E6
:100270000000000000000000000000FF1C36307C81
:1002800030307E0000003C063E663E0060607C66CA
:1002900066667C0000003C6660663C0006063E66C2
:1002A00066663E0000003C667E603C001C30307C90
:1002B0003030300000003E66663E063C60607C6682
:1002C000666666001800381818183C0018003818C0
:1002D000181818706060666C786C6600381818180A
:1002E00018183C000000367F6B6B630000007C66D2
:1002F0006666660000003C6666663C0000007C6640
:10030000667C606000003E66663E060700006C7614
:100310006060600000003E603C067C0030307C3055
:1003200030301C000000666666663E0000006666AF
:10033000663C18000000636B6B7F36000000663C73
:10034000183C660000006666663E063C00007E0CB7
:1003500018307E000C18187018180C0018181800A7
:10036000181818003018180E18183000316B460095
:1003700000000000FFFFFFFFFFFFFFFF811500806F
:10038000EDFF00660060006C8161236003610EA8D0
:1003900082150C7000000000250028002B000000D2
:1003A0000000240027002A000404040404040404B8
:1003B0000202020202020303030303030102040810
:1003C00010204080010204081020010204081020BF
:1003D000CE0911241FBECFEFD8E0DEBFCDBF11E0A4
:1003E000A0E0B1E0EEECF9E102C005900D92AA3573
:1003F000B107D9F728E0AAE5B1E001C01D92AE35FA
:10040000B207E1F711E0C9EED1E004C02197FE0187
:100410000E94070AC83ED107C9F70E940D060C9436
:10042000E50C0C94000090E0FC01E454FC4F249196
:1004300088559C4FFC018491882399F090E0880FA7
:10044000991FFC01E256FC4FA591B491FC01EC56BA
:10045000FC4F859194918FB7F894EC91E22BEC933B
:100460008FBF0895AF92BF92CF92DF92EF92FF922B
:100470000F931F93CF93DF936C017B018B01040FCC
:10048000151FEB015E01AE18BF08C017D10759F068
:100490006991D601ED91FC910190F081E02DC601AA
:1004A0000995892B79F7C501DF91CF911F910F91A4
:1004B000FF90EF90DF90CF90BF90AF900895FC0138
:1004C000538D448D252F30E0842F90E0821B930BB9
:1004D000541710F0CF96089501970895FC01918D5F
:1004E000828D981761F0A28DAE0FBF2FB11D5D9662
:1004F0008C91928D9F5F9F73928F90E008958FEF04
:100500009FEF0895FC01918D828D981731F0828DB7
:10051000E80FF11D858D90E008958FEF9FEF08950E
:10052000FC01918D228D892F90E0805C9F4F821B72
:1005300091098F739927089583E691E00E949002B4
:1005400021E0892B09F420E0822F089580E090E0DB
:10055000892B29F00E949C0281110C9400000895BF
:10056000FC01A48DA80FB92FB11DA35ABF4F2C9128
:10057000848D90E001968F739927848FA689B7891F
:100580002C93A089B1898C91837080648C93938D16
:10059000848D981306C00288F389E02D80818F7DB9
:1005A00080830895EF92FF920F931F93CF93DF9371
:1005B000EC0181E0888F9B8D8C8D98131AC0E8899F
:1005C000F989808185FF15C09FB7F894EE89FF896E
:1005D0006083E889F98980818370806480839FBF0C
:1005E00081E090E0DF91CF911F910F91FF90EF900C
:1005F0000895F62E0B8D10E00F5F1F4F0F7311271C
:10060000E02E8C8D8E110CC00FB607FCFACFE88956
:10061000F989808185FFF5CFCE010E94B002F1CF2C
:10062000EB8DEC0FFD2FF11DE35AFF4FF0829FB7CA
:10063000F8940B8FEA89FB8980818062CFCFCF93BA
:10064000DF93EC01888D8823B9F0AA89BB89E889FA
:10065000F9898C9185FD03C0808186FD0DC00FB6A0
:1006600007FCF7CF8C9185FFF2CF808185FFEDCF1E
:10067000CE010E94B002E9CFDF91CF91089590E0C2
:10068000FC01E859FF4F2491FC01E454FC4F3491E4
:10069000FC01E855FC4FE491EE23C9F0222339F028
:1006A000233001F1A8F4213019F1223029F1F0E0D2
:1006B000EE0FFF1FEC56FC4FA591B4918FB7F89445
:1006C000EC91611126C030953E233C938FBF089575
:1006D0002730A9F02830C9F0243049F780918000F4
:1006E0008F7D03C0809180008F7780938000DFCF63
:1006F00084B58F7784BDDBCF84B58F7DFBCF8091B0
:10070000B0008F778093B000D2CF8091B0008F7D02
:10071000F9CF3E2BDACF3FB7F89480915F019091EB
:100720006001A0916101B091620126B5A89B05C04E
:100730002F3F19F00196A11DB11D3FBFBA2FA92F60
:10074000982F8827BC01CD01620F711D811D911D5D
:1007500042E0660F771F881F991F4A95D1F70895C9
:1007600061E0809102020C943F038EBD00000DB445
:1007700007FEFDCF8EB50895CF93DF93EC0160E0C7
:10078000809102020E943F038D2F0E94B5038C2F9F
:10079000DF91CF910C94B5030F931F93CF93DF9309
:1007A0008A0126E0660F771F2A95E1F7860F971FCB
:1007B00090680E94BC03E8018991882319F00E9487
:1007C000B503FACFDF91CF911F910F910C94B00335
:1007D0001F93CF93DF93162FEA0190680E94BC030A
:1007E000219720F0812F0E94B503FACFDF91CF919E
:1007F0001F910C94B003CF93DF93D62FC72F90682F
:100800000E94BC038D2F0E94B5038C2F0E94B5035C
:10081000DF91CF910C94B003CF93C62F90680E94C4
:10082000BC038C2F0E94B503CF910C94B003CF93DF
:100830000E94BC0380E00E94B503C82F0E94B00351
:100840008C2FCF9108952F923F924F925F926F928B
:100850007F928F929F92AF92BF92CF92DF92EF9250
:10086000FF920F931F93CF93DF93CDB7DEB72897F7
:100870000FB6F894DEBF0FBECDBF6C015B011092C6
:100880003D0810923C084F5F842F90E09C01E6E009
:10089000220F331FEA95E1F7BC01F4E0660F771FE2
:1008A000FA95E1F7262B242B880F991F880F991FA3
:1008B000282B2A8300913C0810913D08073111052F
:1008C0000CF08EC010923B0810923A082BE0029F69
:1008D000802D112442E0480F498357E1509F900139
:1008E000519F300D1124A901475D594F5D834C8301
:1008F000A9014D5F5D4F2A01865F8E8380913A0882
:1009000090913B0898878F83873191050CF061C0E7
:10091000EC81FD81E80FF91F8081882309F450C024
:10092000EF81F885E40DF51D808190E08C159D0523
:100930000CF446C0A816B9060CF442C09F812BE007
:10094000929F802D112472E0272E280E865F8B83C4
:1009500040E1249E700111246894F6F83980832DBB
:1009600090E0232D2F70A701422B9A01982E882406
:10097000882450E39522822A932A55E095958795FD
:100980005A95E1F78670992760EC662E712C02C0AB
:10099000759467948A95E2F7C4010E941704662D46
:1009A000609568238A8168226629C4010E940C042C
:1009B00033949E819311D3CF23942B812211C8CFDE
:1009C0004F8158854F5F5F4F50933B0840933A08E3
:1009D00095CF0F5F1F4F10933D0800933C086ACFDF
:1009E00028960FB6F894DEBF0FBECDBFDF91CF9132
:1009F0001F910F91FF90EF90DF90CF90BF90AF903D
:100A00009F908F907F906F905F904F903F902F902E
:100A10000895AF92BF92CF92DF92EF92FF920F9321
:100A20001F93CF93DF9310923D0810923C081092D1
:100A30003B0810923A0887E1B82E95E0A92E009164
:100A40003C0810913D0807311105A4F510923B08B0
:100A500010923A08B09EC001B19E900D11249C01E5
:100A6000275D394F79019C012D5F3D4F6901C09190
:100A70003A08D0913B08C731D105ACF48EE098E23A
:100A80000E941704F701EC0FFD1F6A2D0E94FB095D
:100A90009083F601EC0FFD1F10822196D0933B0846
:100AA000C0933A08E4CF0F5F1F4F10933D080093A7
:100AB0003C08C5CF40E050E460E080E090E4DF9186
:100AC000CF911F910F91FF90EF90DF90CF90BF904B
:100AD000AF900C94E8031F920F920FB60F9211245F
:100AE0002F933F934F935F936F937F938F939F9336
:100AF000AF93BF93EF93FF9383E691E00E94B00220
:100B0000FF91EF91BF91AF919F918F917F916F91E5
:100B10005F914F913F912F910F900FBE0F901F90BB
:100B200018951F920F920FB60F9211242F938F9347
:100B30009F93EF93FF93E0917301F0917401808193
:100B4000E0917901F0917A0182FD1BC09081809142
:100B50007C018F5F8F7320917D01821741F0E091BE
:100B60007C01F0E0ED59FE4F958F80937C01FF9161
:100B7000EF919F918F912F910F900FBE0F901F902B
:100B800018958081F4CF1F920F920FB60F92112407
:100B90002F933F938F939F93AF93BF9380915B016C
:100BA00090915C01A0915D01B0915E0130915A017C
:100BB00023E0230F2D3758F50196A11DB11D209379
:100BC0005A0180935B0190935C01A0935D01B09307
:100BD0005E0180915F0190916001A0916101B091EF
:100BE00062010196A11DB11D80935F019093600188
:100BF000A0936101B0936201BF91AF919F918F91DA
:100C00003F912F910F900FBE0F901F90189526E8DF
:100C1000230F0296A11DB11DD2CFCF93DF93CDB785
:100C2000DEB764970FB6F894DEBF0FBECDBF7894E1
:100C300084B5826084BD84B5816084BD85B58260E1
:100C400085BD85B5816085BD80916E008160809392
:100C50006E001092810080918100826080938100FB
:100C6000809181008160809381008091800081600B
:100C7000809380008091B10084608093B100809166
:100C8000B00081608093B00080917A00846080938E
:100C90007A0080917A00826080937A0080917A0055
:100CA000816080937A0080917A00806880937A00D6
:100CB0001092C1000E948B034B015C01BAEFCB2E56
:100CC000D12CE12CF12C0E948B03681979098A0937
:100CD0009B09683E734081059105A8F301E0C01AA5
:100CE000D108E108F10818EE810E13E0911EA11C55
:100CF000B11CC114D104E104F10429F789E0809307
:100D000002020E941302BFB6B982F89480910002D9
:100D1000811124C0E2EBF3E08491E6ECF3E09491DE
:100D2000E82FF0E0EE0FFF1FE256FC4FA591B491C3
:100D3000EC91E92321F461E08AE00E943F038AE01C
:100D40000E9413028CB580618CBD8CB580648CBD13
:100D50008DE00E9413028BE00E941302809100023A
:100D60008F5F80930002E980EFBE8CB58C7F8CBDD5
:100D70008DB581608DBD8CB58F7D8CBD8CB5837F2D
:100D80008CBD81E08DBD61E0809102020E943F0335
:100D900061E089E098E20E940C0480E090EB0E9400
:100DA000BC0300E012E01A83098380E90E94B503C6
:100DB00081E00E94B50380E90E94B50381E00E94B2
:100DC000B503809101028F5F8093010209811A812E
:100DD000015011091A830983012B39F70E94B003CE
:100DE00040E058E260E090E080E00E94E80340E0EC
:100DF00058E060E080E098E30E94E80340E050E4BF
:100E000060E080E090E40E94E80340E051E060E0B0
:100E100080E09AE20E94E80340E850E060E080E46D
:100E200098E20E94E80370E060E084E098E20E94AB
:100E3000FB0370E060E086E098E20E94FB0360E064
:100E400088E098E20E940C0460E08AE098E20E9448
:100E50000C0460E08BE098E20E940C0460E08CE0FF
:100E600098E20E940C0470E060E08EE098E20E943C
:100E7000FB0370E060E080E198E20E94FB0370E019
:100E800060E082E198E20E94FB0370E060E08EE1A6
:100E900098E20E94FB0360E484E198E20E940C0463
:100EA00061E089E098E20E940C0480E09BEA0E94E5
:100EB000BC030CE713E01A830983E981FA8184916A
:100EC0000E94B50309811A810F5F1F4F1A8309839E
:100ED0000459134091F70E94B00360E089E098E262
:100EE0000E940C040CE710E0C12CE2E1DE2EF801B8
:100EF0008491A82FAF70B0E0AE5EBE4FFC90E82F9B
:100F0000F0E074E0F595E7957A95E1F7EE5EFE4F37
:100F10006081C6010E940C046F2DC60101960E94DB
:100F20000C040F5F1F4FF2E0CF0ED11CC11428E15B
:100F3000D206E9F600E011E21A83098360E070E866
:100F400089819A810E94FB036FEF7FE789819A81F3
:100F500006960E94FB0309811A81085F1F4F1A83BE
:100F600009830115144251F740E050E160E290E03E
:100F700080E00E94E803A12C50E3B52E1A8219826A
:100F800063E0C62ED12CE980FA8030EFE32268E4DA
:100F9000E60EF11C09811A810F70112784E0000F01
:100FA000111F8A95E1F70A5E1F4FC50190680E94E4
:100FB000BC038E2D0E94B50389819A8126E0959508
:100FC00087952A95E1F7F601E81BF90BCF01880F09
:100FD000991F8860F0E18F02C00111248F290E94BF
:100FE000B503802F0E94B50389819A81880F991FCC
:100FF0008E779927812B0E94B5030E94B003098147
:101000001A810F5F1F4F1A83098314E0A10EB11CD0
:10101000E980FA80E11401E0F00609F0B4CF40E085
:1010200050E460E080E090E40E94E80370E060E05B
:1010300080E898E20E94FB0360EE7FE782E898E296
:101040000E94FB036FEF73E084E898E20E94FB03C9
:101050006FEF7FE786E898E20E94FB0342E251E0EF
:1010600061E070E08CE090E00E94CC034DE351E041
:1010700064E270E080E190E00E94CC030E940905E8
:1010800080913A0890913B084091250650912606A0
:101090002091270630912806A3E06A2EA2E07A2E3E
:1010A00064E174E07C8B6B8BB9E24B2EB6E05B2E77
:1010B00042017C836B830FEF1FEF1E830D83A2E041
:1010C000B0E0BD016250710978876F83A931B10525
:1010D00009F4C2C08FEF9FEF9A838983F2E02F2E2D
:1010E000312C90E080E0F401E80FF91FA080EA2D98
:1010F000F0E0F88BEF872D813E811A8A198A2A1732
:101100003B0709F448C049815A81890106511109F8
:101110001A870987B9016A5E7F4F7C876B8724161F
:101120003506B1F1EF81F8852E173F0731F48417AA
:10113000950739F44F5F5F4FF2CFCB84DC8437FDE6
:1011400006C0C984DA84263131050CF469018A01AC
:1011500057FF18C00A5E1F4FE7E1BE2EBC9CF0018E
:10116000BD9CF00D1124E75DF94F0E0F1F1FF80114
:1011700070817330F9F609891A890F5F1F4F1A8B36
:10118000098BD8CF463151053CF306511109E4CF04
:101190002F5F3F4FB4CF0B811C81080F191F6F8544
:1011A000788963307105B9F5E989FA8933973397FE
:1011B00068F463E0B62EF801B082F301E80FF91F7E
:1011C0006081643638F46F5F608304C072E0B72ECC
:1011D000F801B0820196FFEF2F1A3F0A09811A81A8
:1011E0000F5F1F4F1A8309838731910509F07BCF69
:1011F000119617E1610E711C6B817C81695E7F4FD6
:101200007C836B83ED81FE813196FE83ED83F7E174
:101210008F0E911C56CFEF84F888EF2861F469890E
:101220007A896230710529F2F8011082F301E80F22
:10123000F91F1082CFCF6F85788961507109EE2434
:10124000EA94EA0CF801E0826330710509F4B5CF45
:10125000672B09F0BFCFEACF5093260640932506AF
:1012600030932806209327062AE3E22E28E0F22E68
:10127000E414F504D9F090E080E0D201A80FB91F82
:101280002C91EB89FC89E80FF91F30813C93208376
:1012900001968731910589F707E1400E511C2B8992
:1012A0003C89295E3F4F3C8B2B8BDECF90933B08D4
:1012B00080933A0867E170E070933D0860933C08C2
:1012C00040E050E460E080E090E40E94E80342E007
:1012D00050E064E670E082E390E00E94230441E085
:1012E00050E061E370E082E090E00E94230450E06F
:1012F00040E061E070E090E080E00E94230440E480
:1013000058E064E270E089E290E00E94CC038091B2
:101310003F088F9380913E088F9381E591E09F93E2
:101320008F9380E498E09F938F930E940D0A0F9013
:101330000F900F900F900F900F9080913E0890911A
:101340003F088138910534F010923F0810923E0812
:101350000E94090580913E0890913F080196909364
:101360003F0880933E0883E098E20E941704813092
:10137000D1F383E098E20E9417048823D1F380E040
:10138000E82E80E0F82EEF2809F47ACE0E949C0225
:10139000882309F475CE0E94000072CEE3E6F1E0E6
:1013A0001382128288EE93E0A0E0B0E084839583FC
:1013B000A683B78384E091E09183808385EC90E0FD
:1013C0009587848784EC90E09787868780EC90E00F
:1013D000918B808B81EC90E0938B828B82EC90E000
:1013E000958B848B86EC90E0978B868B118E128E7A
:1013F000138E148E0895991B79E004C0991F9617D7
:1014000008F0961B881F7A95C9F780950895EE0F0E
:10141000FF1F0590F491E02D0994AEE0B0E0E3E108
:10142000FAE00C94BC0C0D891E8986E08C831A832B
:1014300009838FEF9FE79E838D83AE01475E5F4FE9
:101440006F89788DCE0101960E94300A2F813885F0
:10145000020F131FF80110822E96E4E00C94D80CB2
:10146000ABE0B0E0E6E3FAE00C94AE0C7C013B01AB
:101470008A01FC0117821682838181FFC8C1CE01D7
:1014800001965C01F7019381F30193FD859193FF30
:1014900081913F01882309F453C1853239F493FDCA
:1014A000859193FF81913F01853229F4B70190E046
:1014B0000E94200CE7CF912C212C312CFFE1F31559
:1014C00038F08B3211F190F4803209F1833229F136
:1014D00037FC3CC020ED280F2A3050F536FE20C0E6
:1014E0008AE0989E200D1124922E06C08D3291F034
:1014F000803371F7689430F8F30193FD859193FF81
:1015000081913F018111DACF21C0689431F868944C
:1015100032F8F2CF689433F8EFCF689434F8ECCF18
:10152000EAE02E9E200D1124222E689435F8E4CF97
:101530008E3229F436FC04C1689436F8DDCF8C363F
:1015400019F4689437F8D8CF8836B1F2982F9F7D78
:1015500095549330E0F08336A1F18337C1F18335A0
:1015600009F063C02801F2E04F0E511CF801C08061
:10157000D180692D70E036FC02C06FEF7FEFC601AD
:101580000E940A0C4C01689437F882010AC00C5F73
:101590001F4FFFE3F98388248394912C6501E8941D
:1015A00037F833FE2DC0522C8114910471F555206B
:1015B00009F468CFB70180E290E00E94200C5A94B1
:1015C000F6CFF801808189830E5F1F4FE4CF280199
:1015D000F2E04F0E511CF801C080D180692D70E0FF
:1015E00036FC02C06FEF7FEFC6010E94150C4C0164
:1015F0008201D5CFB70180E290E00E94200C2A94AE
:101600002814190409F0B0F7CECFF60137FC859104
:1016100037FE81916F01B70190E00E94200C5110BC
:101620005A94F1E08F1A9108BFCF843619F08936A9
:1016300009F077C0F80137FE6BC06081718182814B
:1016400093810C5F1F4FF32DFF763F2E97FF09C04C
:1016500090958095709561957F4F8F4F9F4F6894BF
:1016600037F82AE030E0A5010E94500CC82ECA18B5
:101670008C2C432C36FE0CC0E89440F8C91440F47E
:1016800034FE05C032FC03C0F32DFE7E4F2E892CA4
:1016900044FE95C0FE01EC0DF11D8081803309F000
:1016A00087C0242D297E422E842D8870582E43FC1D
:1016B00095C040FE8FC09C2C821418F42C0C922CE8
:1016C000981844FE91C0B70180E390E00E94200C7E
:1016D00042FE09C088E790E041FE02C088E590E044
:1016E000B7010E94200CC91408F48AC0CA94D12CF6
:1016F0009FEFC91AD90ACA0CDB1CF60182916F014F
:10170000B70190E00E94200CAC14BD04B1F74FCF9C
:1017100060817181072E000C880B990B0E5F1F4FA3
:1017200092CFD32CE894D4F82AE030E0853739F111
:10173000232D297FD22E8F3601F148F48835A9F068
:10174000F701868197812B96E2E10C94CA0C8037D1
:1017500049F08837A9F7D4FE02C06894D2F820E196
:1017600030E00DC06894D4F8F6CF34FE03C0822F69
:101770008660D82E20E132E002C028E030E0F80197
:10178000D7FE0FC060817181828193810C5F1F4FF2
:10179000A5010E94500CC82ECA183D2CE89437F8B9
:1017A00067CF6081718190E080E00E5F1F4FF0CFC6
:1017B00042FC02C0839478CF8394839475CF842DA8
:1017C000867809F471CFF6CFB70180E290E00E94ED
:1017D000200C83948214C0F3512C73CF522C5818D0
:1017E000821408F46ECFF8CF842D867809F47BCF6D
:1017F0008BE241FE80E247FC8DE2B70190E071CFC1
:10180000B70180E390E00E94200C9A946CCF8FEF98
:101810009FEF99CFFC010590615070400110D8F7FF
:10182000809590958E0F9F1F0895FC016150704028
:1018300001900110D8F7809590958E0F9F1F089505
:101840000F931F93CF93DF93182F092FEB018B81F9
:1018500081FD09C01FEF0FEF812F902FDF91CF91F6
:101860001F910F91089582FF14C02E813F818C81BA
:101870009D81281739073CF4E881F981CF01019651
:101880009983888310838E819F8101969F838E83A5
:10189000E3CFE885F985812F0995892BA1F3DACF6C
:1018A000FA01AA27283051F1203181F1E8946F9391
:1018B0006E7F6E5F7F4F8F4F9F4FAF4FB1E03ED037
:1018C000B4E03CD0670F781F891F9A1FA11D680FD5
:1018D000791F8A1F911DA11D6A0F711D811D911D08
:1018E000A11D20D009F468943F912AE0269F11247D
:1018F0003019305D3193DEF6CF010895462F4770E1
:10190000405D4193B3E00FD0C9F7F6CF462F4F703B
:10191000405D4A3318F0495D31FD4052419302D099
:10192000A9F7EACFB4E0A69597958795779567953F
:10193000BA95C9F700976105710508959B01AC013F
:101940000A2E06945795479537952795BA95C9F766
:10195000620F731F841F951FA01D08952F923F9241
:101960004F925F926F927F928F929F92AF92BF92AF
:10197000CF92DF92EF92FF920F931F93CF93DF935B
:10198000CDB7DEB7CA1BDB0B0FB6F894DEBF0FBEB8
:10199000CDBF09942A88398848885F846E847D8405
:1019A0008C849B84AA84B984C884DF80EE80FD8007
:1019B0000C811B81AA81B981CE0FD11D0FB6F8947D
:1019C000DEBF0FBECDBFED010895F894FFCF00003C
:1019D0000000D20232025F021F0390026E028202F6
:1019E00000030C0F30333C3FC0C3CCCFF0F3FCFFFF
:1019F00053746172576172732063656C6C756C61AE
:101A000072206175746F6D617461004372656174F9
:101A10006564206279204A4C5320323032310025EF
:081A200033642067656E73005A
:107E0000112484B714BE81FFF0D085E080938100F7
:107E100082E08093C00088E18093C10086E0809377
:107E2000C20080E18093C4008EE0C9D0259A86E02C
:107E300020E33CEF91E0309385002093840096BBD3
:107E4000B09BFECF1D9AA8958150A9F7CC24DD24C4
:107E500088248394B5E0AB2EA1E19A2EF3E0BF2EE7
:107E6000A2D0813461F49FD0082FAFD0023811F036
:107E7000013811F484E001C083E08DD089C08234E0
:107E800011F484E103C0853419F485E0A6D080C0E4
:107E9000853579F488D0E82EFF2485D0082F10E0AE
:107EA000102F00270E291F29000F111F8ED06801E7
:107EB0006FC0863521F484E090D080E0DECF843638
:107EC00009F040C070D06FD0082F6DD080E0C81688
:107ED00080E7D80618F4F601B7BEE895C0E0D1E017
:107EE00062D089930C17E1F7F0E0CF16F0E7DF06D8
:107EF00018F0F601B7BEE89568D007B600FCFDCFD4
:107F0000A601A0E0B1E02C9130E011968C91119780
:107F100090E0982F8827822B932B1296FA010C0160
:107F200087BEE89511244E5F5F4FF1E0A038BF0790
:107F300051F7F601A7BEE89507B600FCFDCF97BE46
:107F4000E89526C08437B1F42ED02DD0F82E2BD052
:107F50003CD0F601EF2C8F010F5F1F4F84911BD097
:107F6000EA94F801C1F70894C11CD11CFA94CF0C13
:107F7000D11C0EC0853739F428D08EE10CD085E9AC
:107F80000AD08FE07ACF813511F488E018D01DD067
:107F900080E101D065CF982F8091C00085FFFCCF94
:107FA0009093C60008958091C00087FFFCCF809118
:107FB000C00084FD01C0A8958091C6000895E0E648
:107FC000F0E098E1908380830895EDDF803219F02E
:107FD00088E0F5DFFFCF84E1DECF1F93182FE3DFCA
:107FE0001150E9F7F2DF1F91089580E0E8DFEE27F6
:047FF000FF270994CA
:027FFE00040479
:00000001FF
