:020000040000FA
:100000000C945F020C9487020C9487020C94870274
:100010000C9487020C9487020C9487020C9487023C
:100020000C9487020C9487020C9487020C9487022C
:100030000C9487020C9487020C9487020C9487021C
:100040000C9464050C9487020C9432050C940C05F6
:100050000C9487020C9487020C9487020C948702FC
:100060000C9487020C948702000000080002010033
:100070000003040700000000000000000000000072
:100080000000000018181818180018006C6C6C009C
:100090000000000036367F367F3636000C3F683E63
:1000A0000B7E180060660C1830660600386C6C38E1
:1000B0006D663B000C183000000000000C1830305A
:1000C00030180C0030180C0C0C18300000187E3C56
:1000D0007E1800000018187E1818000000000000AC
:1000E000001818300000007E000000000000000032
:1000F0000018180000060C18306000003C666E7E88
:1001000076663C001838181818187E003C66060CF5
:1001100018307E003C66061C06663C000C1C3C6CDD
:100120007E0C0C007E607C0606663C001C30607C09
:1001300066663C007E060C18303030003C66663C3B
:1001400066663C003C66663E060C380000001818E7
:100150000018180000001818001818300C1830602B
:1001600030180C0000007E007E00000030180C06E5
:100170000C1830003C660C18180018003C666E6ABB
:100180006E603C003C66667E666666007C66667CE9
:1001900066667C003C66606060663C00786C666603
:1001A000666C78007E60607C60607E007E60607C53
:1001B000606060003C66606E66663C006666667EF7
:1001C000666666007E18181818187E003E0C0C0C27
:1001D0000C6C3800666C7870786C660060606060EB
:1001E00060607E0063777F6B6B6363006666767E1C
:1001F0006E6666003C66666666663C007C66667C8B
:10020000606060003C6666666A6C36007C66667C90
:100210006C6666003C66603C06663C007E181818FA
:10022000181818006666666666663C00666666664E
:10023000663C180063636B6B7F77630066663C18EF
:100240003C6666006666663C181818007E060C1848
:1002500030607E007C60606060607C000060301810
:100260000C0600003E06060606063E00183C6642E6
:100270000000000000000000000000FF1C36307C81
:1002800030307E0000003C063E663E0060607C66CA
:1002900066667C0000003C6660663C0006063E66C2
:1002A00066663E0000003C667E603C001C30307C90
:1002B0003030300000003E66663E063C60607C6682
:1002C000666666001800381818183C0018003818C0
:1002D000181818706060666C786C6600381818180A
:1002E00018183C000000367F6B6B630000007C66D2
:1002F0006666660000003C6666663C0000007C6640
:10030000667C606000003E66663E060700006C7614
:100310006060600000003E603C067C0030307C3055
:1003200030301C000000666666663E0000006666AF
:10033000663C18000000636B6B7F36000000663C73
:10034000183C660000006666663E063C00007E0CB7
:1003500018307E000C18187018180C0018181800A7
:10036000181818003018180E18183000316B460095
:1003700000000000FFFFFFFFFFFFFFFFE0154460EC
:100380000F800363816B04800369F08F0363036450
:10039000816B30800363006E036400C0036481607E
:1003A000006C98A80060006C8D6B05800369068066
:1003B000036303690364806123600F710066018039
:1003C0000F728160006C8061A1550060006C006E4E
:1003D0000F74FF800F7396A80060006CA0554761F2
:1003E00090A8A35595A80060006C01800369816105
:1003F000AB5592A80060006C0365DE35816194A85E
:100400000060006CC635006E8155816B03628160AF
:1004100000800368D73595A80060006C036297A838
:100420000060006C006EA155D815018047618061A5
:100430008D6B03628061B9158D6B0F7197A8006099
:10044000006CE035AD55008097A823600361E0158E
:100450000C70811598A80060006C4761FFBFFFFF1A
:100460008160006C816B0363816123600361006ABA
:1004700081678735008097A82360036195150C700C
:1004800000000000250028002B00000000002400D0
:1004900027002A00040404040404040402020202E3
:1004A0000202030303030303010204081020408037
:1004B000010204081020010204081020AE051124D6
:1004C0001FBECFEFD8E0DEBFCDBF11E0A0E0B1E0AE
:1004D000E6E6F5E102C005900D92A435B107D9F723
:1004E00022E0A4E5B1E001C01D92A730B207E1F718
:1004F00012E0CFE5D2E004C02197FE010E94AB0AD2
:10050000CE35D107C9F70E94DB050C94B10A0C94D3
:10051000000090E0FC01E855FB4F24918C569B4F66
:10052000FC018491882399F090E0880F991FFC01C9
:10053000E657FB4FA591B491FC01E058FB4F859124
:1005400094918FB7F894EC91E22BEC938FBF0895C0
:10055000AF92BF92CF92DF92EF92FF920F931F93D1
:10056000CF93DF936C017B018B01040F151FEB010F
:100570005E01AE18BF08C017D10759F06991D601C6
:10058000ED91FC910190F081E02DC6010995892B38
:1005900079F7C501DF91CF911F910F91FF90EF90F7
:1005A000DF90CF90BF90AF900895FC01538D448DA4
:1005B000252F30E0842F90E0821B930B541710F00E
:1005C000CF96089501970895FC01918D828D98171B
:1005D00061F0A28DAE0FBF2FB11D5D968C91928DF3
:1005E0009F5F9F73928F90E008958FEF9FEF089524
:1005F000FC01918D828D981731F0828DE80FF11DED
:10060000858D90E008958FEF9FEF0895FC01918D07
:10061000228D892F90E0805C9F4F821B91098F7300
:100620009927089582E691E00E94060321E0892B34
:1006300009F420E0822F089580E090E0892B29F0D2
:100640000E94120381110C9400000895FC01A48DF6
:10065000A80FB92FB11DA35ABF4F2C91848D90E0E4
:1006600001968F739927848FA689B7892C93A089C7
:10067000B1898C91837080648C93938D848D981351
:1006800006C00288F389E02D80818F7D80830895E4
:10069000EF92FF920F931F93CF93DF93EC0181E0D2
:1006A000888F9B8D8C8D98131AC0E889F989808179
:1006B00085FF15C09FB7F894EE89FF896083E889AC
:1006C000F98980818370806480839FBF81E090E09E
:1006D000DF91CF911F910F91FF90EF900895F62E2B
:1006E0000B8D10E00F5F1F4F0F731127E02E8C8DC5
:1006F0008E110CC00FB607FCFACFE889F98980810A
:1007000085FFF5CFCE010E942603F1CFEB8DEC0FD4
:10071000FD2FF11DE35AFF4FF0829FB7F8940B8F26
:10072000EA89FB8980818062CFCFCF93DF93EC0190
:10073000888D8823B9F0AA89BB89E889F9898C91C9
:1007400085FD03C0808186FD0DC00FB607FCF7CF85
:100750008C9185FFF2CF808185FFEDCFCE010E9485
:100760002603E9CFDF91CF91089590E0FC01E8598D
:10077000FF4F2491FC01E855FB4F3491FC01EC56EE
:10078000FB4FE491EE23C9F0222339F0233001F12D
:10079000A8F4213019F1223029F1F0E0EE0FFF1F0B
:1007A000E058FB4FA591B4918FB7F894EC9161118B
:1007B00026C030953E233C938FBF08952730A9F083
:1007C0002830C9F0243049F7809180008F7D03C024
:1007D000809180008F7780938000DFCF84B58F7702
:1007E00084BDDBCF84B58F7DFBCF8091B0008F7748
:1007F0008093B000D2CF8091B0008F7DF9CF3E2B97
:10080000DACF3FB7F8948091590190915A01A091A5
:100810005B01B0915C0126B5A89B05C02F3F19F084
:100820000196A11DB11D3FBFBA2FA92F982F882770
:10083000BC01CD01620F711D811D911D42E0660F4B
:10084000771F881F991F4A95D1F7089561E080911D
:100850005F010C94B5038EBD00000DB407FEFDCF03
:100860008EB50895CF93DF93EC0160E080915F0136
:100870000E94B5038D2F0E942B048C2FDF91CF9106
:100880000C942B04CF9387E998E20E94320480E015
:100890000E942B04C82F0E942604C111F4CFCF91CF
:1008A00008951F93CF93DF93162FEA0190680E945B
:1008B0003204219720F0812F0E942B04FACFDF9180
:1008C000CF911F910C942604CF93DF93D62FC72F7F
:1008D00090680E9432048D2F0E942B048C2F0E945E
:1008E0002B04DF91CF910C942604CF93C62F9068F0
:1008F0000E9432048C2F0E942B04CF910C9426046A
:100900000F931F93CF93DF93EC018B0161E089E09C
:1009100098E20E94750480E09BEA0E9432040C0F6A
:100920001D1F0C171D0731F0FE0184910E942B043E
:100930002196F7CF0E94260460E089E098E2DF91DB
:10094000CF911F910F910C947504CF93809160010A
:10095000C2E08111C1E01092610161E089E098E29A
:100960000E94750461E087E998E20E94750463E0E3
:10097000C6272C2F30E0C90146E0880F991F4A9501
:10098000E1F7B90154E0660F771F5A95E1F7682B3C
:100990006C2B220F331F220F331F622B88E998E242
:1009A0000E9475046EE270E082E594E0CF910C94B1
:1009B00080040E9442048091600170E060E0813018
:1009C000F1F480E898E20E9464046FEF7FE782E828
:1009D00098E20E94640470E060E084E898E20E947B
:1009E00064046FEF7FE786E898E20E9464048091D8
:1009F000600191E08927809360010C94A50480E850
:100A000098E20E94640470E060E082E898E20E944C
:100A100064046FEF7FE7E1CF1F920F920FB60F9242
:100A200011242F933F934F935F936F937F938F93F3
:100A30009F93AF93BF93EF93FF9382E691E00E9461
:100A40002603FF91EF91BF91AF919F918F917F917D
:100A50006F915F914F913F912F910F900FBE0F902B
:100A60001F9018951F920F920FB60F9211242F937B
:100A70008F939F93EF93FF93E0917201F091730135
:100A80008081E0917801F091790182FD1BC0908115
:100A900080917B018F5F8F7320917C01821741F0E1
:100AA000E0917B01F0E0EE59FE4F958F80937B0142
:100AB000FF91EF919F918F912F910F900FBE0F900B
:100AC0001F9018958081F4CF1F920F920FB60F924E
:100AD00011242F933F938F939F93AF93BF93809154
:100AE000550190915601A0915701B0915801309154
:100AF000540123E0230F2D3758F50196A11DB11D98
:100B0000209354018093550190935601A09357016F
:100B1000B09358018091590190915A01A0915B01C5
:100B2000B0915C010196A11DB11D80935901909374
:100B30005A01A0935B01B0935C01BF91AF919F916B
:100B40008F913F912F910F900FBE0F901F9018958E
:100B500026E8230F0296A11DB11DD2CFE2E6F1E0F7
:100B60001382128288EE93E0A0E0B0E08483958344
:100B7000A683B78388E191E09183808385EC90E040
:100B80009587848784EC90E09787868780EC90E057
:100B9000918B808B81EC90E0938B828B82EC90E048
:100BA000958B848B86EC90E0978B868B118E128EC2
:100BB000138E148E0895CF93DF93CDB7DEB72A97A7
:100BC0000FB6F894DEBF0FBECDBF789484B58260B7
:100BD00084BD84B5816084BD85B5826085BD85B5E1
:100BE000816085BD80916E00816080936E0010925F
:100BF00081008091810082608093810080918100DA
:100C0000816080938100809180008160809380006A
:100C10008091B10084608093B1008091B0008160C8
:100C20008093B00080917A00846080937A008091F4
:100C30007A00826080937A0080917A00816080934C
:100C40007A0080917A00806880937A001092C100C7
:100C50000E9401044B015C01BAEFCB2ED12CE12C98
:100C6000F12C0E940104681979098A099B09683EE0
:100C7000734081059105A8F321E0C21AD108E1086B
:100C8000F10838EE830E33E0931EA11CB11CC11491
:100C9000D104E104F10429F789E080935F010E9407
:100CA00089025FB75983F89480915D01811124C056
:100CB000EEE9F4E08491E2EBF4E09491E82FF0E0C7
:100CC000EE0FFF1FE657FB4FA591B491EC91E9237E
:100CD00021F461E08AE00E94B5038AE00E94890263
:100CE0008CB580618CBD8CB580648CBD8DE00E941C
:100CF00089028BE00E94890280915D018F5F809361
:100D00005D0189818FBF8CB58C7F8CBD8DB5816075
:100D10008DBD8CB58F7D8CBD8CB5837F8CBD81E006
:100D20008DBD61E080915F010E94B50361E089E0C3
:100D300098E20E94750480E090EB0E943204A0E0EB
:100D4000B2E0BA83A98380E90E942B0481E00E946B
:100D50002B0480E90E942B0481E00E942B048091E7
:100D60005E018F5F80935E01E981FA813197FA839A
:100D7000E983EF2B41F70E94260440E058E260E04F
:100D800090E080E00E94510440E058E060E080E0A4
:100D900098E30E94510440E050E460E080E090E479
:100DA0000E94510440E051E060E080E09AE20E943D
:100DB000510440E850E060E080E498E20E94510471
:100DC00070E060E084E098E20E94640470E060E01B
:100DD00086E098E20E94640460E088E098E20E9465
:100DE000750460E08AE098E20E94750460E08BE0A0
:100DF00098E20E94750460E08CE098E20E9475041D
:100E000070E060E08EE098E20E94640470E060E0D0
:100E100080E198E20E94640470E060E082E198E280
:100E20000E94640470E060E08EE198E20E94640435
:100E300060E484E198E20E9475040CE710E0C12CA4
:100E400072E1D72EF8018491A82FAF70B0E0AC5FAB
:100E5000BE4FFC90E82FF0E064E0F595E7956A95C9
:100E6000E1F7EC5FFE4F6081C6010E9475046F2DB3
:100E7000C60101960E9475040F5F1F4FF2E0CF0E6E
:100E8000D11CC11428E1D206E9F640E051E25A83B0
:100E9000498360E070E889819A810E9464046FEF61
:100EA0007FE789819A8106960E94640489819A81EC
:100EB00008969A8389838115944259F740E050E15E
:100EC00060E290E080E00E9451048EE490E80E948D
:100ED0003204E6E2F1E0FA83E983A981BA818D91D7
:100EE000BA83A983882319F00E942B04F6CF0E94AD
:100EF000260480E199E80E943204EFE3F1E0FA83EE
:100F0000E983A981BA818D91BA83A983882319F0D5
:100F10000E942B04F6CF0E942604A12C50E3B52E8C
:100F20001A82198203E010E0C980DA80B0EFCB2288
:100F3000E8E4CE0ED11CE980FA80FFE0EF22FF2426
:100F400094E0EE0CFF1C9A95E1F726E1E20EF11C0D
:100F5000C50190680E9432048C2D0E942B04898167
:100F60009A8126E0969587952A95E1F7A801481B76
:100F7000590BCA01880F991F886050E18502C00192
:100F800011248D290E942B048E2D0E942B0489810F
:100F90009A81880F991F8E7799278F290E942B0499
:100FA0000E94260489819A8101969A83898394E01C
:100FB000A90EB11CA981BA81A115B14009F0B4CF25
:100FC00010926001109261010E94A5040E94D90450
:100FD00080E0282E80E0382E11E020E038E03A87CB
:100FE00029878091000190910101A0910201B091A7
:100FF000030189839A83AB83BC83C0900302D090A2
:101000000402E0900502F09006028090FF019090AB
:101010000002A0900102B0900202A7019601BC015B
:10102000CD010E94510920E030E040E251E40E94ED
:101030003E0A2AE037ED43EA5BE30E943E0AA7013D
:1010400096010E9452096D837E838F8398876093F7
:10105000030270930402809305029093060220E03D
:1010600030E040EE51E4C701B6010E943E0A2981FA
:101070003A814B815C810E9451092B013C01A50101
:101080009401C701B6010E943E0A9B01AC01C30155
:10109000B2010E9451092AE037ED43EA5BE30E9466
:1010A0003E0A29813A814B815C810E9452092B01C1
:1010B0003C01409200015092010160920201709245
:1010C0000301A701960169817A818B819C810E942D
:1010D0003E0A6B017C01A5019401C501B4010E9487
:1010E00052099B01AC01C701B6010E9451092AE0D7
:1010F00037ED43EA5BE30E943E0AA50194010E949A
:1011000052096093FF017093000280930102909353
:10111000020220E030E040E850E4C301B2010E9446
:101120003E0A4B015C0120E030E040E053E40E94C5
:1011300052090E94BE09E62E20E030E040EA50E469
:101140006D817E818F8198850E943E0A2B013C0132
:1011500020E030E040E053E40E9452090E94BE09C2
:10116000D62E20E030E04EEF52E4C501B4010E94DB
:1011700052090E94BE09F62E20E030E04EEF52E404
:10118000C301B2010E9452090E94BE09C62EAE2DB3
:10119000AF19BB0B9D01B7FF03C0319521953109F4
:1011A000ED2DEC19FF0BCF01F7FF03C09195819551
:1011B0009109BB24B394821793070CF0B12C8217CA
:1011C000930734F08E2DED2CD82E8F2DFC2CC82EAD
:1011D000EF1430F48C2DCD2CD82E8F2DFE2CE82E34
:1011E0002D2D2C19330BC90137FF03C09195819523
:1011F0009109082FAA24AA94CD1410F4AA24A39428
:101200000E94420480916101811115C066ED70E079
:101210008CE793E00E94800410936101809160014B
:1012200062E0811161E06295660F660F607C88E97B
:1012300098E20E94750480E998EA0E9432048F2D9A
:101240000E942B048C2D0E942B048E2D0E942B04B7
:101250008D2D0E942B048B2D0E942B048E2D8F1917
:101260000E942B04802F0E942B048A2D0E942B04A5
:101270000E94260449855A85415051095A87498759
:10128000452B09F0AECE0E94D9042114310409F493
:10129000A4CE0E941203882309F49FCE0E9400006E
:1012A0009CCE5058BB27AA270E9469090C94040AB7
:1012B0000E94F60938F00E94FD0920F039F49F3FA2
:1012C00019F426F40C94F3090EF4E095E7FB0C9462
:1012D000ED09E92F0E94150A58F3BA176207730740
:1012E0008407950720F079F4A6F50C94370A0EF4DC
:1012F000E0950B2EBA2FA02D0B01B90190010C0126
:10130000CA01A0011124FF27591B99F0593F50F43D
:10131000503E68F11A16F040A22F232F342F442795
:10132000585FF3CF469537952795A795F04053958D
:10133000C9F77EF41F16BA0B620B730B840BBAF05D
:101340009150A1F0FF0FBB1F661F771F881FC2F7C8
:101350000EC0BA0F621F731F841F48F487957795DC
:101360006795B795F7959E3F08F0B0CF9395880F96
:1013700008F09927EE0F9795879508950E941D0A0A
:1013800088F09F5798F0B92F9927B751B0F0E1F046
:10139000660F771F881F991F1AF0BA95C9F714C0F6
:1013A000B13091F00E94370AB1E008950C94370AE9
:1013B000672F782F8827B85F39F0B93FCCF386952F
:1013C00077956795B395D9F73EF49095809570958C
:1013D00061957F4F8F4F9F4F089597F99F6780E8E2
:1013E00070E060E008959FEF80EC089500240A9477
:1013F0001616170618060906089500240A941216F0
:101400001306140605060895092E0394000C11F422
:10141000882352F0BB0F40F4BF2B11F460FF04C0CF
:101420006F5F7F4F8F4F9F4F089557FD9058440F28
:10143000551F59F05F3F71F04795880F97FB991F33
:1014400061F09F3F79F087950895121613061406F0
:10145000551FF2CF4695F1DF08C01616170618067D
:10146000991FF1CF86957105610508940895E89458
:10147000BB2766277727CB0197F908950E94510A69
:101480000C94040A0E94F60938F00E94FD0920F02D
:10149000952311F00C94ED090C94F30911240C948C
:1014A000380A0E94150A70F3959FC1F3950F50E01A
:1014B000551F629FF001729FBB27F00DB11D639F06
:1014C000AA27F00DB11DAA1F649F6627B00DA11DAC
:1014D000661F829F2227B00DA11D621F739FB00D52
:1014E000A11D621F839FA00D611D221F749F3327C2
:1014F000A00D611D231F849F600D211D822F762F5B
:101500006A2F11249F5750409AF0F1F088234AF037
:10151000EE0FFF1FBB1F661F771F881F91505040A3
:10152000A9F79E3F510580F00C94ED090C94380A00
:101530005F3FE4F3983ED4F3869577956795B7952A
:10154000F795E7959F5FC1F7FE2B880F911D969544
:10155000879597F90895EE0FFF1F0590F491E02D00
:101560000994F894FFCF0000803F00030C0F303344
:101570003C3FC0C3CCCFF0F3FCFF000000004803A9
:10158000A802D50295030603E402F8024C6F7265C7
:101590006E7A204368616F7469632041747472616C
:1015A00063746F72004372656174656420627920B0
:0A15B0004A4C532032303231000063
:107E0000112484B714BE81FFF0D085E080938100F7
:107E100082E08093C00088E18093C10086E0809377
:107E2000C20080E18093C4008EE0C9D0259A86E02C
:107E300020E33CEF91E0309385002093840096BBD3
:107E4000B09BFECF1D9AA8958150A9F7CC24DD24C4
:107E500088248394B5E0AB2EA1E19A2EF3E0BF2EE7
:107E6000A2D0813461F49FD0082FAFD0023811F036
:107E7000013811F484E001C083E08DD089C08234E0
:107E800011F484E103C0853419F485E0A6D080C0E4
:107E9000853579F488D0E82EFF2485D0082F10E0AE
:107EA000102F00270E291F29000F111F8ED06801E7
:107EB0006FC0863521F484E090D080E0DECF843638
:107EC00009F040C070D06FD0082F6DD080E0C81688
:107ED00080E7D80618F4F601B7BEE895C0E0D1E017
:107EE00062D089930C17E1F7F0E0CF16F0E7DF06D8
:107EF00018F0F601B7BEE89568D007B600FCFDCFD4
:107F0000A601A0E0B1E02C9130E011968C91119780
:107F100090E0982F8827822B932B1296FA010C0160
:107F200087BEE89511244E5F5F4FF1E0A038BF0790
:107F300051F7F601A7BEE89507B600FCFDCF97BE46
:107F4000E89526C08437B1F42ED02DD0F82E2BD052
:107F50003CD0F601EF2C8F010F5F1F4F84911BD097
:107F6000EA94F801C1F70894C11CD11CFA94CF0C13
:107F7000D11C0EC0853739F428D08EE10CD085E9AC
:107F80000AD08FE07ACF813511F488E018D01DD067
:107F900080E101D065CF982F8091C00085FFFCCF94
:107FA0009093C60008958091C00087FFFCCF809118
:107FB000C00084FD01C0A8958091C6000895E0E648
:107FC000F0E098E1908380830895EDDF803219F02E
:107FD00088E0F5DFFFCF84E1DECF1F93182FE3DFCA
:107FE0001150E9F7F2DF1F91089580E0E8DFEE27F6
:047FF000FF270994CA
:027FFE00040479
:00000001FF
