:020000040000FA
:100000000C9469030C9491030C9491030C94910348
:100010000C9491030C9491030C9491030C94910310
:100020000C9491030C9491030C9491030C94910300
:100030000C9491030C9491030C9491030C949103F0
:100040000C9441070C9491030C940F070C94E9064F
:100050000C9491030C9491030C9491030C949103D0
:100060000C9491030C94910300000008000201001D
:100070000003040700000000000000000000000072
:100080000000000018181818180018006C6C6C009C
:100090000000000036367F367F3636000C3F683E63
:1000A0000B7E180060660C1830660600386C6C38E1
:1000B0006D663B000C183000000000000C1830305A
:1000C00030180C0030180C0C0C18300000187E3C56
:1000D0007E1800000018187E1818000000000000AC
:1000E000001818300000007E000000000000000032
:1000F0000018180000060C18306000003C666E7E88
:1001000076663C001838181818187E003C66060CF5
:1001100018307E003C66061C06663C000C1C3C6CDD
:100120007E0C0C007E607C0606663C001C30607C09
:1001300066663C007E060C18303030003C66663C3B
:1001400066663C003C66663E060C380000001818E7
:100150000018180000001818001818300C1830602B
:1001600030180C0000007E007E00000030180C06E5
:100170000C1830003C660C18180018003C666E6ABB
:100180006E603C003C66667E666666007C66667CE9
:1001900066667C003C66606060663C00786C666603
:1001A000666C78007E60607C60607E007E60607C53
:1001B000606060003C66606E66663C006666667EF7
:1001C000666666007E18181818187E003E0C0C0C27
:1001D0000C6C3800666C7870786C660060606060EB
:1001E00060607E0063777F6B6B6363006666767E1C
:1001F0006E6666003C66666666663C007C66667C8B
:10020000606060003C6666666A6C36007C66667C90
:100210006C6666003C66603C06663C007E181818FA
:10022000181818006666666666663C00666666664E
:10023000663C180063636B6B7F77630066663C18EF
:100240003C6666006666663C181818007E060C1848
:1002500030607E007C60606060607C000060301810
:100260000C0600003E06060606063E00183C6642E6
:100270000000000000000000000000FF1C36307C81
:1002800030307E0000003C063E663E0060607C66CA
:1002900066667C0000003C6660663C0006063E66C2
:1002A00066663E0000003C667E603C001C30307C90
:1002B0003030300000003E66663E063C60607C6682
:1002C000666666001800381818183C0018003818C0
:1002D000181818706060666C786C6600381818180A
:1002E00018183C000000367F6B6B630000007C66D2
:1002F0006666660000003C6666663C0000007C6640
:10030000667C606000003E66663E060700006C7614
:100310006060600000003E603C067C0030307C3055
:1003200030301C000000666666663E0000006666AF
:10033000663C18000000636B6B7F36000000663C73
:10034000183C660000006666663E063C00007E0CB7
:1003500018307E000C18187018180C0018181800A7
:10036000181818003018180E18183000316B460095
:1003700000000000FFFFFFFFFFFFFFFFFF7FFF7F89
:10038000FF7FDE7BBD779C739C737B6F7B6F5A6BAB
:100390005A6B5A6B39671863F75EF75EF75EF75E64
:1003A000B556B5569452734E734E524A524A314620
:1003B0003146EF3DCE39CE39CE39AD35AD35AD35DF
:1003C0008C318C316B2D6B2D4A29292500000000C2
:1003D000000000000000000000000000000000001D
:1003E000000000000000000000000000000000000D
:1003F00000000000000000000000000000000000FD
:1004000000000000000000000000000000000000EC
:1004100000000000000000000000000000000000DC
:1004200000000000000000000000000000000000CC
:1004300000000000000000000000000000000000BC
:1004400000000000000000000000000000000000AC
:10045000000000000000000000000000000000009C
:10046000000000000000000000000000000000008C
:10047000000000000000000000000000000000007C
:10048000000000000000000000000000000000006C
:10049000000000000000000000000000000000005C
:1004A000000000000000000000000000000000004C
:1004B000000000000000000000000000000000003C
:1004C000000000000000000000000000000000002C
:1004D000000000000000000000000000000000001C
:1004E000000000000000000000000000000000000C
:1004F00000000000000000000000000000000000FC
:1005000000000000000000000000000000000000EB
:1005100000000000000000000000000000000000DB
:1005200000000000000000000000000000000000CB
:1005300000000000000000000000000000000000BB
:1005400000000000000000000000000000000000AB
:10055000000000000000000000000000000000009B
:10056000000000000000000000000000000000008B
:10057000000000000000000000000080FFFFFFFFFF
:10058000FFFFFFFFFFFFFFFFFFFFFFFFFFFFFFFF7B
:1005900000000000030B1220FFFFFFFFFFFFFF0022
:1005A0000000000001060F1723FFFFFFFFFF000000
:1005B0000000000002070E161E27FFFFFF000000CC
:1005C00000000000030911171F2727FFFF0000008C
:1005D00000000001050C1219222727FFFF00000070
:1005E000000000040A10151B252727FFFF0000004C
:1005F000000104080D141A21272727FFFF03010219
:1006000003050A0D13181D26272727FFFF0B0607D2
:10061000090C1014181C2427272727FFFF120F0E80
:100620001112151A1D242727272727FFFF20171629
:1006300017191B2126272727272727FFFFFF231E00
:100640001F222527272727272727FFFFFFFFFF2711
:10065000272727272727272727FFFFFFFFFFFFFF42
:100660002727272727272727FFFFFFFFFFFFFFFF5A
:10067000FFFFFFFFFFFFFFFFFFFFFFFF8115008070
:10068000EDFF00660060006C8161236003610EA8CD
:1006900082150C7000000000250028002B000000CF
:1006A0000000240027002A000404040404040404B5
:1006B000020202020202030303030303010204080D
:1006C00010204080010204081020010204081020BC
:1006D000A60911241FBECFEFD8E0DEBFCDBF11E0C9
:1006E000A0E0B1E0E4E3F5E102C005900D92A03591
:1006F000B107D9F723E0A0E5B1E001C01D92AB3FFF
:10070000B207E1F713E0C9E6D3E004C02197FE0188
:100710000E94920AC836D107C9F70E948B070C9431
:10072000980A0C94000090E0FC01E454F94F2491E5
:100730008855994FFC018491882399F090E0880FA7
:10074000991FFC01E256F94FA591B491FC01EC56BA
:10075000F94F859194918FB7F894EC91E22BEC933B
:100760008FBF0895AF92BF92CF92DF92EF92FF9228
:100770000F931F93CF93DF936C017B018B01040FC9
:10078000151FEB015E01AE18BF08C017D10759F065
:100790006991D601ED91FC910190F081E02DC601A7
:1007A0000995892B79F7C501DF91CF911F910F91A1
:1007B000FF90EF90DF90CF90BF90AF900895FC0135
:1007C000538D448D252F30E0842F90E0821B930BB6
:1007D000541710F0CF96089501970895FC01918D5C
:1007E000828D981761F0A28DAE0FBF2FB11D5D965F
:1007F0008C91928D9F5F9F73928F90E008958FEF01
:100800009FEF0895FC01918D828D981731F0828DB4
:10081000E80FF11D858D90E008958FEF9FEF08950B
:10082000FC01918D228D892F90E0805C9F4F821B6F
:1008300091098F739927089589E591E00E9410042A
:1008400021E0892B09F420E0822F089580E090E0D8
:10085000892B29F00E941C0481110C94000008953A
:10086000FC01A48DA80FB92FB11DA35ABF4F2C9125
:10087000848D90E001968F739927848FA689B7891C
:100880002C93A089B1898C91837080648C93938D13
:10089000848D981306C00288F389E02D80818F7DB6
:1008A00080830895EF92FF920F931F93CF93DF936E
:1008B000EC0181E0888F9B8D8C8D98131AC0E8899C
:1008C000F989808185FF15C09FB7F894EE89FF896B
:1008D0006083E889F98980818370806480839FBF09
:1008E00081E090E0DF91CF911F910F91FF90EF9009
:1008F0000895F62E0B8D10E00F5F1F4F0F73112719
:10090000E02E8C8D8E110CC00FB607FCFACFE88953
:10091000F989808185FFF5CFCE010E943004F1CFA7
:10092000EB8DEC0FFD2FF11DE35AFF4FF0829FB7C7
:10093000F8940B8FEA89FB8980818062CFCFCF93B7
:10094000DF93EC01888D8823B9F0AA89BB89E889F7
:10095000F9898C9185FD03C0808186FD0DC00FB69D
:1009600007FCF7CF8C9185FFF2CF808185FFEDCF1B
:10097000CE010E943004E9CFDF91CF91089590E03D
:10098000FC01E859FF4F2491FC01E454F94F3491E4
:10099000FC01E855F94FE491EE23C9F0222339F028
:1009A000233001F1A8F4213019F1223029F1F0E0CF
:1009B000EE0FFF1FEC56F94FA591B4918FB7F89445
:1009C000EC91611126C030953E233C938FBF089572
:1009D0002730A9F02830C9F0243049F780918000F1
:1009E0008F7D03C0809180008F7780938000DFCF60
:1009F00084B58F7784BDDBCF84B58F7DFBCF8091AD
:100A0000B0008F778093B000D2CF8091B0008F7DFF
:100A1000F9CF3E2BDACF3FB7F894809155019091F2
:100A20005601A0915701B091580126B5A89B05C069
:100A30002F3F19F00196A11DB11D3FBFBA2FA92F5D
:100A4000982F8827BC01CD01620F711D811D911D5A
:100A500042E0660F771F881F991F4A95D1F70895C6
:100A60008F929F92AF92BF92CF92DF92EF92FF92BE
:100A70004B015C010E940B056B017C010E940B0580
:100A80006C197D098E099F09683E734081059105A7
:100A9000A8F321E0821A9108A108B10888EEC80ED7
:100AA00083E0D81EE11CF11C81149104A104B1045F
:100AB00029F7FF90EF90DF90CF90BF90AF909F907D
:100AC0008F90089561E08091FA030C94BF048EBD6D
:100AD00000000DB407FEFDCF8EB50895CF93DF93D0
:100AE000EC0160E08091FA030E94BF048D2F0E9408
:100AF00067058C2FDF91CF910C946705FF920F93C0
:100B00001F93CF93DF93F62E072F142FD52FC22FCD
:100B1000880F991F880F991F905D90680E946E053D
:100B20008F2D0E94670520E1C29FC0011124802BF8
:100B30000E946705812F0E9467058D2F0E9467051F
:100B4000DF91CF911F910F91FF900C9462050F934D
:100B50001F93CF93DF93EB018A0190680E946E058B
:100B60000C0F1D1FC017D10731F0FE0184910E94A8
:100B700067052196F7CFDF91CF911F910F910C94CC
:100B800062051F93CF93DF93162FEA0190680E94AE
:100B90006E05219720F0812F0E946705FACFDF9123
:100BA000CF911F910C946205CF93DF93D62FC72F5F
:100BB00090680E946E058D2F0E9467058C2F0E9401
:100BC0006705DF91CF910C946205CF93C62F906893
:100BD0000E946E058C2F0E946705CF910C946205D0
:100BE000CF93DF936AEF70E080E090E00E943005E1
:100BF00089E08093FA030E949303CFB7F894809121
:100C0000F803811124C0E2EBF6E08491E6ECF6E013
:100C10009491E82FF0E0EE0FFF1FE256F94FA591F7
:100C2000B491EC91E92321F461E08AE00E94BF04D1
:100C30008AE00E9493038CB580618CBD8CB5806482
:100C40008CBD8DE00E9493038BE00E949303809102
:100C5000F8038F5F8093F803CFBF8CB58C7F8CBD7A
:100C60008DB581608DBD8CB58F7D8CBD8CB5837F3E
:100C70008CBD81E08DBD61E08091FA030E94BF04CC
:100C800061E089E098E20E94E50580E090EB0E9437
:100C90006E05C0E0D2E080E90E94670581E00E9415
:100CA000670580E90E94670581E00E9467058091E1
:100CB000F9038F5F8093F903219769F70E9462051A
:100CC00040E058E260E090E080E00E94C10540E032
:100CD00058E060E080E098E30E94C10540E050E405
:100CE00060E080E090E40E94C10540E051E060E0F7
:100CF00080E09AE20E94C10540E850E060E080E4B4
:100D000098E20E94C10570E060E084E098E20E94F1
:100D1000D40570E060E086E098E20E94D40560E0CF
:100D200088E098E20E94E50560E08AE098E20E948F
:100D3000E50560E08BE098E20E94E50560E08CE06C
:100D400098E20E94E50570E060E08EE098E20E9483
:100D5000D40570E060E080E198E20E94D40570E084
:100D600060E082E198E20E94D40570E060E08EE1EC
:100D700098E20E94D40560E484E198E2DF91CF918B
:100D80000C94E505FF920F931F93CF93DF9310927E
:100D9000F603C6EFD1E082E0F82E10E000E00E94FA
:100DA0001F0AFE01E00FF11F80FF11C0F0820F5FEC
:100DB0001F4F0031110599F7609682E0C63FD807B2
:100DC00061F7DF91CF911F910F91FF9008951082ED
:100DD000EECF1F920F920FB60F9211242F933F93D5
:100DE0004F935F936F937F938F939F93AF93BF9333
:100DF000EF93FF9389E591E00E943004FF91EF911A
:100E0000BF91AF919F918F917F916F915F914F9122
:100E10003F912F910F900FBE0F901F9018951F922A
:100E20000F920FB60F9211242F938F939F93EF93EE
:100E3000FF93E0916901F0916A018081E0916F0177
:100E4000F091700182FD1BC09081809172018F5FD3
:100E50008F7320917301821741F0E0917201F0E0ED
:100E6000E75AFE4F958F80937201FF91EF919F910A
:100E70008F912F910F900FBE0F901F90189580812A
:100E8000F4CF1F920F920FB60F9211242F933F931E
:100E90008F939F93AF93BF93809151019091520193
:100EA000A0915301B09154013091500123E0230FE0
:100EB0002D3758F50196A11DB11D20935001809347
:100EC000510190935201A0935301B093540180912A
:100ED000550190915601A0915701B091580101968A
:100EE000A11DB11D8093550190935601A093570108
:100EF000B0935801BF91AF919F918F913F912F91E6
:100F00000F900FBE0F901F90189526E8230F0296A2
:100F1000A11DB11DD2CFCF93DF9300D000D000D060
:100F20001F92CDB7DEB7789484B5826084BD84B556
:100F3000816084BD85B5826085BD85B5816085BDD4
:100F400080916E00816080936E001092810080918C
:100F50008100826080938100809181008160809314
:100F60008100809180008160809380008091B10039
:100F700084608093B1008091B00081608093B00064
:100F800080917A00846080937A0080917A008260F8
:100F900080937A0080917A00816080937A008091BA
:100FA0007A00806880937A001092C1000E94F00558
:100FB00061E089E098E20E94E50548E150E06CE7D5
:100FC00076E080E09BE20E94A70560E089E098E27D
:100FD0000E94E5058EE098E20E946E0580E00E9486
:100FE000670589830E9462050981802F90E00E9435
:100FF000240A0E94F00540E051E06CE775E080E0D3
:1010000090E40E94A70540E052E06CE773E080E0C6
:1010100098E30E94A7050CE710E0C12C22E1D22E34
:10102000F8018491A82FAF70B0E0AA5EBE4FFC908B
:10103000E82FF0E094E0F595E7959A95E1F7EA5E00
:10104000FE4F6081C6010E94E5056F2DC601019625
:101050000E94E5050F5F1F4FF2E0CF0ED11CC114B7
:1010600028E1D206E9F600E011E21B830A8360E082
:1010700070E88A819B810E94D4056FEF7FE78A81A7
:101080009B8106960E94D4050A811B81085F1F4F31
:101090001B830A830115144251F740E050E160E2DE
:1010A00090E080E00E94C1058FE490E80E946E0508
:1010B00006E211E01B830A83AA81BB818D91BB8369
:1010C000AA83882319F00E946705F6CF0E94620563
:1010D00080E199E80E946E050BE311E01B830A830F
:1010E000AA81BB818D91BB83AA83882319F00E94BA
:1010F0006705F6CF0E9462051B821A8220E040E954
:1011000051E060E971E08A819B810E947E050A813D
:101110001B810F5F1F4F1B830A830115114071F75D
:101120000E94C2068091F60331E0381B3983832E7A
:10113000912C382C2224D101AA50BE4F3D01482EBB
:10114000512C6201C818D908DC2CCC24BD014FEF0A
:101150005FEF84E0440C551C8A95E1F7FB01EC0D30
:10116000FD1DFB83EA8330E020E0AA24AA94BA2C78
:10117000C5015D834C83F0E0E0E01F821E820C819C
:101180001D810031110570F510E000E080319105FE
:10119000E8F47C01AFEFEA1AFA0AAE81BF81119739
:1011A00019F40130110589F0840D951DA4E0880F14
:1011B000991FAA95E1F78A509E4FAC81BD818A0F95
:1011C0009B1FDC018C9181113196C7010F5F1F4F6E
:1011D00003301105D9F60C811D810F5F1F4F1D8350
:1011E0000C830397AE81BF811196BF83AE831397A3
:1011F00031F6CF010297029708F0A6C083E033973B
:1012000029F0EA81FB81E20FF31F8081FB01E20FED
:10121000F31F8083BFEFAB1ABB0A205F3F4F21153E
:10122000E1E03E0709F0A4CF6F5F7F4F4F5F5F4F54
:101230004F30510509F092CFF981F093F60320E089
:10124000289D8001299D100D181911240A501E4F48
:101250001B830A8380E1E82EF12CC101865F914057
:101260001C018A809B80820C931C10E000E0B12C52
:10127000A12CF301E00FF11F8081F801F395AA8101
:10128000BB81EA0FFB1F9081981759F0B801605C91
:101290007F4F20E0811101C021E0A701C5010E941C
:1012A0007E05A80CB91C005F1F4F0115B1E01B079C
:1012B00001F70A811B810F5F1F4F1B830A831FEFFA
:1012C000611A710A20E1E20EF11C30E1E31631E00F
:1012D000F30639F68091F703813820F01092F70376
:1012E0000E94C2068091F7038F5F8093F70360E549
:1012F00070E080E090E00E94300583E098E20E9478
:101300006E0580E00E94670589830E94620509815D
:10131000013099F383E098E20E946E0580E00E941C
:10132000670589830E9462051981112399F320E0E2
:1013300030E0232B09F4F6CE0E941C04882309F424
:10134000F1CE0E940000EECE80E060CFE9E5F1E052
:101350001382128288EE93E0A0E0B0E0848395834C
:10136000A683B78388E091E09183808385EC90E049
:101370009587848784EC90E09787868780EC90E05F
:10138000918B808B81EC90E0938B828B82EC90E050
:10139000958B848B86EC90E0978B868B118E128ECA
:1013A000138E148E08958F929F92AF92BF92CF9218
:1013B000DF92EF92FF92CF93DF93EC016881798106
:1013C0008A819B81611571058105910521F464E293
:1013D00079ED8BE597E02DE133EF41E050E00E949D
:1013E0002F0A49015A019B01AC01A7EAB1E40E940E
:1013F0004E0A6B017C01ACEEB4EFA50194010E9492
:101400005C0ADC01CB018C0D9D1DAE1DBF1DB7FF1D
:1014100003C00197A109B04888839983AA83BB833D
:101420009F77DF91CF91FF90EF90DF90CF90BF90AB
:10143000AF909F908F9008950E94D309089580E007
:1014400091E00E94D3090895B0E0A0E080930001EC
:1014500090930101A0930201B09303010895052E1A
:1014600097FB1EF400940E94460A57FD07D00E9485
:10147000610A07FC03D04EF40C94460A509540953F
:10148000309521953F4F4F4F5F4F08959095809530
:10149000709561957F4F8F4F9F4F08950E94830AEB
:1014A000A59F900DB49F900DA49F800D911D1124B8
:1014B0000895B7FF0C944E0A0E944E0A821B930BAC
:1014C0000895A1E21A2EAA1BBB1BFD010DC0AA1F85
:1014D000BB1FEE1FFF1FA217B307E407F50720F09D
:1014E000A21BB30BE40BF50B661F771F881F991F18
:1014F0001A9469F760957095809590959B01AC0161
:10150000BD01CF010895A29FB001B39FC001A39F69
:10151000700D811D1124911DB29F700D811D11242C
:10152000911D0895EE0FFF1F0590F491E02D099491
:10153000F894FFCF01000000000000005204B20345
:10154000DF039F041004EE03020400030C0F30338A
:101550003C3FC0C3CCCFF0F3FCFF436F6E776179A3
:10156000732047616D65206F66204C696665004396
:10157000726561746564206279204A4C5320323070
:041580003231000004
:107E0000112484B714BE81FFF0D085E080938100F7
:107E100082E08093C00088E18093C10086E0809377
:107E2000C20080E18093C4008EE0C9D0259A86E02C
:107E300020E33CEF91E0309385002093840096BBD3
:107E4000B09BFECF1D9AA8958150A9F7CC24DD24C4
:107E500088248394B5E0AB2EA1E19A2EF3E0BF2EE7
:107E6000A2D0813461F49FD0082FAFD0023811F036
:107E7000013811F484E001C083E08DD089C08234E0
:107E800011F484E103C0853419F485E0A6D080C0E4
:107E9000853579F488D0E82EFF2485D0082F10E0AE
:107EA000102F00270E291F29000F111F8ED06801E7
:107EB0006FC0863521F484E090D080E0DECF843638
:107EC00009F040C070D06FD0082F6DD080E0C81688
:107ED00080E7D80618F4F601B7BEE895C0E0D1E017
:107EE00062D089930C17E1F7F0E0CF16F0E7DF06D8
:107EF00018F0F601B7BEE89568D007B600FCFDCFD4
:107F0000A601A0E0B1E02C9130E011968C91119780
:107F100090E0982F8827822B932B1296FA010C0160
:107F200087BEE89511244E5F5F4FF1E0A038BF0790
:107F300051F7F601A7BEE89507B600FCFDCF97BE46
:107F4000E89526C08437B1F42ED02DD0F82E2BD052
:107F50003CD0F601EF2C8F010F5F1F4F84911BD097
:107F6000EA94F801C1F70894C11CD11CFA94CF0C13
:107F7000D11C0EC0853739F428D08EE10CD085E9AC
:107F80000AD08FE07ACF813511F488E018D01DD067
:107F900080E101D065CF982F8091C00085FFFCCF94
:107FA0009093C60008958091C00087FFFCCF809118
:107FB000C00084FD01C0A8958091C6000895E0E648
:107FC000F0E098E1908380830895EDDF803219F02E
:107FD00088E0F5DFFFCF84E1DECF1F93182FE3DFCA
:107FE0001150E9F7F2DF1F91089580E0E8DFEE27F6
:047FF000FF270994CA
:027FFE00040479
:00000001FF
